:100000000C9463000C948B000C948B000C948B006C
:100010000C948B000C948B000C948B000C94E10ED0
:100020000C948B000C948B000C948B000C948B0024
:100030000C948B000C948B000C948B000C948B0014
:100040000C94B0020C948B000C948B000C948B00DD
:100050000C948B000C948B000C948B000C948B00F4
:100060000C948B000C948B000000000024002700EF
:100070002A000000000023002600290000000008DC
:10008000000201000003040700000000000000005F
:10009000010204081020408001020408102001021F
:1000A0000408102000000000250028002B00040494
:1000B0000404040404040202020202020303030310
:1000C00003030200CE1111241FBECFEFD8E0DEBF24
:1000D000CDBF12E0A0E0B1E0E0E4F2E302C00590A1
:1000E0000D92A43EB107D9F724E0A4EEB2E001C01E
:1000F0001D92A330B207E1F710E0C3E6D0E004C0E0
:100100002197FE010E946B17C236D107C9F70E94E2
:1001100085120C941E190C9400008E3008F08E503D
:100120008770806480937C0080917A0080648093E3
:100130007A0080917A0086FDFCCF80917800209132
:10014000790090E0922B08953FB7F89480913103A5
:1001500090913203A0913303B091340326B5A89B4C
:1001600005C02F3F19F00196A11DB11D3FBFBA2F49
:10017000A92F982F8827820F911DA11DB11DBC01A9
:10018000CD0142E0660F771F881F991F4A95D1F76E
:100190000895AF92BF92CF92DF92EF92FF920F93AA
:1001A0001F93CF93DF9300D0CDB7DEB7C12CD12CF6
:1001B0005C01AA0CBB1C8501005E1C4FE09018037B
:1001C000F0901903C616D70694F4F801808169836C
:1001D0007A830E948D008E0D9F1D9093190380934A
:1001E0001803FFEFCF1ADF0A7A816981E7CFC701D1
:1001F0000E94F716F501E65EFC4F80819181681B35
:10020000790B6B01072E000CEE08FF0877FD12C07A
:10021000C701B6010E94251820E030E040E05FE30E
:100220000E9481170E94ED17161617061806190668
:1002300094F013C0C701B6010E94251820E030E0F9
:1002400040E05FE30E9480170E94ED171616170624
:10025000180619066CF4CB011BC0C701B6010E9439
:10026000251820E030E040E05FE30E9481170AC0DB
:10027000C701B6010E94251820E030E040E05FE3AE
:100280000E9480170E94ED1788279927861B970BDD
:1002900090931903809318030F900F90DF91CF91E3
:1002A0001F910F91FF90EF90DF90CF90BF90AF9094
:1002B000089580917C0390917D03892B41F44091B6
:1002C000770367E070E081E090E00E94170E809174
:1002D0007C0390917D03019741F44091770367E09F
:1002E00070E082E090E00C94170E0895833081F066
:1002F00028F4813099F08230A1F008958730A9F078
:100300008830B9F08430D1F4809180008F7D03C0B3
:10031000809180008F7780938000089584B58F77D7
:1003200002C084B58F7D84BD08958091B0008F7721
:1003300003C08091B0008F7D8093B00008951F931B
:10034000CF93DF93282F30E0F901E458FF4F8491D9
:10035000F901E057FF4FD491F901E255FF4FC491E5
:10036000CC23C9F0162F81110E947601EC2FF0E00A
:10037000EE0FFF1FEC55FF4FA591B4918FB7F89486
:10038000111105C09C91ED2FE095E92302C0EC917D
:10039000ED2BEC938FBFDF91CF911F910895CF93F9
:1003A000DF9390E0FC01E057FF4F2491FC01E25500
:1003B000FF4F8491882361F190E0880F991FFC0121
:1003C000E859FF4FC591D491FC01EC55FF4FA59121
:1003D000B491611109C09FB7F89488812095822358
:1003E0008883EC912E230BC0623061F49FB7F894A0
:1003F0003881822F809583238883EC912E2B2C9338
:100400009FBF06C08FB7F894E8812E2B28838FBF3B
:10041000DF91CF9108951F93CF93DF93182FEB01B6
:1004200061E00E94CF01209711F460E004C0CF3F4B
:10043000D10539F461E0812FDF91CF911F910C94A8
:100440009F01E12FF0E0E458FF4FE491E330F9F031
:1004500048F4E130B9F0E230A1F584B5806284BDA2
:10046000C8BD34C0E730E9F0E83019F1E43049F5AF
:1004700080918000806280938000D0938B00C09335
:100480008A0024C084B5806884BDC7BD1FC0809128
:100490008000806880938000D0938900C09388009A
:1004A00015C08091B00080688093B000C093B30005
:1004B0000DC08091B00080628093B000C093B40002
:1004C00005C0C038D1050CF0B5CFAFCFDF91CF91CB
:1004D0001F9108958F929F92AF92BF92CF92DF9219
:1004E000EF92FF926B017C010E94A4004B015C0122
:1004F000C114D104E104F104F1F00E94A400DC0174
:10050000CB0188199909AA09BB09883E9340A10526
:10051000B10570F321E0C21AD108E108F10888EEB4
:10052000880E83E0981EA11CB11CC114D104E10403
:10053000F10419F7DDCFFF90EF90DF90CF90BF90DF
:10054000AF909F908F9008952FB7F89460912D03EE
:1005500070912E0380912F03909130032FBF089547
:100560001F920F920FB60F9211242F933F938F93E8
:100570009F93AF93BF9380912D0390912E03A091F1
:100580002F03B091300330912C0323E0230F2D373C
:1005900020F40196A11DB11D05C026E8230F029687
:1005A000A11DB11D20932C0380932D0390932E0346
:1005B000A0932F03B09330038091310390913203C5
:1005C000A0913303B09134030196A11DB11D809316
:1005D000310390933203A0933303B0933403BF915C
:1005E000AF919F918F913F912F910F900FBE0F90E0
:1005F0001F9018952F923F924F925F926F927F9229
:100600008F929F92AF92BF92CF92DF92EF92FF9222
:100610000F931F93CF93DF9300D0CDB7DEB78C013C
:1006200049832A83660F771FF801EA5AFF4FE0805B
:10063000F180EE0CFF1CF801CF01801B910B8E1591
:100640009F0514F41192F8CF8981F801E60FF71F86
:1006500081838A818083580184E5A80EB11C60E003
:10066000F50180810E949F01E00EF11E4801F2E534
:100670008F0E911C380180E5680E711CC701801B2C
:10068000910B1816190624F5F701C2907F01F401A9
:100690003080F301208087E0482E512CD12CB60108
:1006A000042C02C0759567950A94E2F7617077276C
:1006B000822D0E949F0161E0832D0E949F0160E0D6
:1006C000832D0E949F01F1E04F1A510840F7D6CFC9
:1006D00061E0F50180810F900F90DF91CF911F9124
:1006E0000F91FF90EF90DF90CF90BF90AF909F90D1
:1006F0008F907F906F905F904F903F902F900C94D1
:100700009F0177FD10C0FC01EA5AFF4F2081318123
:100710006217730744F4442311F020E001C021E084
:100720004CE00C94FA020895AF92BF92CF92DF9200
:10073000EF92FF920F931F93CF93DF9380918003EB
:10074000811137C0CDECD2E007EB12E088EEA82E85
:1007500083E0B82E69917991C5010E94F7166B016B
:10076000F801619171918F010D2C000CEE08FF08CA
:10077000A701960185E00E943D0FC701B6010E94C6
:1007800025182AE037ED43EA5FE30E94B1180E9482
:10079000ED17072E000C880B990B0E946A0285E06A
:1007A0000E94B60EF2E0C53EDF07A1F681E080931D
:1007B0008003DF91CF911F910F91FF90EF90DF9019
:1007C000CF90BF90AF9008958F929F92AF92BF92BB
:1007D000CF92DF92EF92FF920F931F93CF93DF930D
:1007E00000D0CDB7DEB700E010E04C01880C991CBA
:1007F000C401865E9C4F5C01F401E05EFC4F6F011A
:10080000061717079CF4F501E080F180F60180815E
:1008100069837A830E948D008E0D9F1DF50191835F
:1008200080830F5F1F4F7A816981EACFF401E65E12
:10083000FC4F808191810E94F7169B01072E000CCE
:10084000880B990B37FD09C00E94251820E030E085
:1008500040E05FE30E94811708C00E94251820E055
:1008600030E040E05FE30E9480170E94ED17F40142
:10087000E65EFC4F718360830F900F90DF91CF9104
:100880001F910F91FF90EF90DF90CF90BF90AF90AE
:100890009F908F900895CF93DF93EC0166E970E00D
:1008A00085E00E940B02BE01DD0F880B990B0E94B0
:1008B0006A0260E085E0DF91CF910C949F0168ECC3
:1008C00070E085E00E940B0268EC70E080E090E050
:1008D0000E946A0260E085E00C949F011092790307
:1008E00081E080934D01109217030C945F04EF9206
:1008F000FF920F931F93CF93DF937C018B01C0E096
:10090000D0E0F8014081BE01E114F10451F480E02F
:1009100090E00E94170EF8014081BE0183E090E054
:1009200009C081E090E00E94170EF8014081BE01ED
:1009300082E090E00E94170E21960F5F1F4FC83093
:10094000D105F9F6DF91CF911F910F91FF90EF90B4
:100950000895CF92DF92FF920F931F93CF93DF936F
:100960006C018B01C0E0D0E0FF24F394C114D104EA
:1009700091F4F8014081BE0181E090E00E94170EE1
:1009800090917A039F25BE01690F711DF801408186
:1009900083E090E011C090917A039F25BE01690F1A
:1009A000711DF801408180E090E00E94170EF8016F
:1009B0004081BE0182E090E00E94170E21960F5FF9
:1009C0001F4FC830D10591F680918003811117C067
:1009D0000E94590140E060E070E080E090E00E94F9
:1009E000170E40E060E070E083E090E0DF91CF918F
:1009F0001F910F91FF90DF90CF900C94170EDF9115
:100A0000CF911F910F91FF90DF90CF9008959F920B
:100A1000AF92BF92CF92DF92EF92FF920F931F930C
:100A2000CF93DF937B018C01C0E0D0E099249394B5
:100A3000570180917A038925BE01680F711DF70166
:100A400041917F0180E090E00E94170E6801F8015B
:100A500041918F01BE0181E090E00E94170EF501E7
:100A60004081BE0182E090E00E94170E90917A03CF
:100A70009925BE01690F711DF601408183E090E068
:100A80000E94170E2196C830D10591F680918003FF
:100A900081111BC00E94590140E060E070E080E0DD
:100AA00090E00E94170E40E060E070E083E090E08C
:100AB000DF91CF911F910F91FF90EF90DF90CF903A
:100AC000BF90AF909F900C94170EDF91CF911F9124
:100AD0000F91FF90EF90DF90CF90BF90AF909F90DD
:100AE0000895AF92BF92CF92DF92EF92FF920F9351
:100AF0001F93CF93DF9384E00E94A511892B31F4DB
:100B000082E00E94A511892B09F4A4C010927403FD
:100B100010927303109246031092450382E090E016
:100B2000909365028093640210927A0310927F037F
:100B30001092800366E571E080E090E00E94770407
:100B40006EE471E081E090E00E94770468EE73E06B
:100B500080E090E00E946A0264E572E0CB010E94AE
:100B6000070564EF71E080E090E00E946A0265E4AE
:100B700071E080E090E00E9477046EE471E081E033
:100B800090E00E94770468EE73E080E090E00E94BD
:100B90006A02C1EAD2E00BE812E088EEA82E83E0F8
:100BA000B82E69917991C5010E94F7166B01F80181
:100BB000619171918F010D2C000CEE08FF08A701C7
:100BC000960185E00E943D0FC701B6010E942518DD
:100BD00026E636E646EA5FE30E94B1180E94ED176A
:100BE000072E000C880B990B0E946A0285E00E9478
:100BF000B60EF2E0C93BDF07A1F66CE172E0CB0173
:100C00000E9407051092790381E080934D011092B4
:100C100017038093860210923803109237031092C4
:100C2000160310921503109236031092350310929A
:100C300076031092750310927D0310927C03DF916E
:100C4000CF911F910F91FF90EF90DF90CF90BF90C9
:100C5000AF90089590917B0381E0892780937B0377
:100C600055CF80918902882351F00E94A40260939D
:100C700011037093120380931303909314038091D4
:100C80007A03811186C0E0914503F0914603EE0F8F
:100C9000FF1FE95BFC4F60817181E0917303F0916C
:100CA0007403EE0FFF1FE95BFC4F808191810E946E
:100CB0000705809173039091740320917B03853124
:100CC000910539F040914503509146034531510556
:100CD00019F421115AC00AC00B9731F080914503D5
:100CE000909146030B97B1F42223A1F081E0809309
:100CF000800364EC74E080E090E00E946A026DE39F
:100D000073E0CB010E9407056CED70E080E090E09D
:100D10000E946A026091730370917403809145038D
:100D200090914603860F971F20917B03211106C0E7
:100D300065E070E00E94F716CB0104C097FD0196B4
:100D40009595879562E070E00E94F7169C0190915E
:100D50007E03232B69F421E030E030937D03209360
:100D60007C039923B1F010927D0310927C030895C7
:100D700010927D0310927C03992359F081E090E05A
:100D800090937D0380937C0308950B9709F0A6CF81
:100D9000ADCF08958091450390914603853191052B
:100DA0002CF4019690934603809345030E946E04B1
:100DB0000C943106809173039091740385319105F1
:100DC0002CF4019690937403809373030E946E0435
:100DD0000C9431064F925F926F927F92AF92BF92C6
:100DE000DF92EF92FF920F931F93CF93DF93EC016B
:100DF000FC01EE0FFF1FEA5DFC4F80810E94A511F0
:100E0000DD24D394892B09F4D12CFE01EE5BFE4F37
:100E1000D082CE01815C9E4F5C017E01EE0CFF1CF6
:100E2000EE0CFF1CF5018081D1109DC0882309F4D0
:100E30004CC00E94A402F701ED5CFE4F408051803F
:100E400062807380DC01CB0184199509A609B7097A
:100E50004597A105B105C8F10E94A402F701E95D1B
:100E6000FE4F6083718382839383FE01E25FFC4FB8
:100E70001082FE01E55FFC4F108211E0FE01EC5D87
:100E8000FE4F1083FE01E85FFC4F1082FE01EB5F16
:100E9000FC4F10820E94A402AB01BC014419550909
:100EA00066097709FE01EE5FFC4FDE01A150BD4FE0
:100EB0004E35514061057105F8F4808181111CC0E7
:100EC0008C918823C9F010831C920E94A402F70120
:100ED000E95DFE4F4080518062807380DC01CB0170
:100EE00084199509A609B709883E9340A105B10563
:100EF00028F400E010E09FC01082E6CFDE01A85F7A
:100F0000BC4F8C91811115C081E0FE01E55FFC4F63
:100F10008083FE01E25FFC4F8083FE01EE5FFC4FA9
:100F20001082FE01E150FD4F10828C9303E010E02F
:100F300002C000E010E00E94A402DC01CB01841991
:100F40009509A609B709803B9440A105B10508F4AD
:100F500072C0CB5FDC4F888181116DC081E08883D6
:100F600004E010E068C0811163C00E94A402F70190
:100F7000E95DFE4F0081118122813381DC01CB01CB
:100F8000801B910BA20BB30B4597A105B10508F48B
:100F90004FC0FE01E25FFC4F8081811149C00E9479
:100FA000A402F701ED5CFE4F60837183828393831B
:100FB000DE01AE5FBC4F8C91FE01E150FD4F81110F
:100FC00003C081E0808334C01C921082FE01EC5D7E
:100FD000FE4F108202E010E00E94A402F701ED5CD7
:100FE000FE4F4080518062807380DC01CB01841908
:100FF0009509A609B7098E359140A105B105D8F02C
:10100000FE01E150FD4F80818823A9F0DE01AE5F33
:10101000BC4F8C9181110FC0CC5DDE4F888188233D
:1010200051F00230110539F0108201E010E003C0E8
:1010300000E010E0D1CFF501D082C801DF91CF915F
:101040001F910F91FF90EF90DF90BF90AF907F9036
:101050006F905F904F9008958F929F92AF92BF9242
:10106000CF92DF92EF92FF920F931F93CF93DF9374
:101070008091790381110EC28091350390913603DE
:10108000909316038093150380918602811180C08E
:101090008091800381117CC00E94A40200913903D9
:1010A00010913A0320913B0330913C03045D1E4FA5
:1010B0002F4F3F4F061717072807390708F068C05A
:1010C00081E090E02091370330913803232B11F019
:1010D00080E090E090933803809337030E94A4024D
:1010E0006093390370933A0380933B0390933C03DE
:1010F0008091370390913803892B39F06DE373E0C9
:1011000080917C0390917D0323C080917A03882392
:1011100049F180916402909165028330910559F400
:1011200080917C0390917D030097A9F46CE472E0B8
:1011300080E090E00DC0019789F480917C0390914C
:101140007D038130910539F46CE472E081E090E038
:101150000E94A9041DC064E572E0FACF64E472E065
:10116000CB0114C0E0914503F0914603EE0FFF1F41
:10117000E95BFC4F60817181E0917303F09174032E
:10118000EE0FFF1FE95BFC4F808191810E940705F4
:1011900080918902882309F468C00E94A40200910A
:1011A000110310911203209113033091140308547A
:1011B000144F2F4F3F4F061717072807390708F01E
:1011C00054C06AE070E080E090E00E946A022091E2
:1011D0007C0330917D0380917A03232BE9F4811104
:1011E00016C0E0914503F0914603EE0FFF1FE95B47
:1011F000FC4F60817181E0917303F0917403EE0FF5
:10120000FF1FE95BFC4F808191810E9407051092CE
:101210007603109275031EC0811116C0E09145033C
:10122000F0914603EE0FFF1FE95BFC4F6081718177
:10123000E0917303F0917403EE0FFF1FE95BFC4F25
:10124000808191810E94070581E090E09093760370
:1012500080937503109278031092770386E990E0EB
:101260000E944B0481E080937903809177039091F1
:101270007803C0917C03D0917D0303970CF0BFC02D
:101280006CE271E0CE010E94C9008C01CC0FDD1F21
:10129000CB50DD4F198308838091EC02882329F11C
:1012A0000E94A402C090E802D090E902E090EA0215
:1012B000F090EB0228EEC20E23E0D21EE11CF11CDE
:1012C000C616D706E806F90680F40E94A4026093C9
:1012D000E8027093E9028093EA029093EB02109285
:1012E000E7021092E6021092EC02063011050CF4AF
:1012F00029C4063911050CF068C08091E402909170
:10130000E50206970CF061C00E94A402C09004019F
:10131000D0900501E0900601F0900701DC01CB01BF
:101320008C199D09AE09BF09CD97A105B10508F437
:101330004CC08091E6029091E702892B69F40E94EB
:10134000A4026093E8027093E9028093EA0290930A
:10135000EB0281E08093EC020E94A402C090E802BC
:10136000D090E902E090EA02F090EB0248EEC40E61
:1013700043E0D41EE11CF11CC616D706E806F906A8
:1013800088F40E94A4026093E8027093E9028093BB
:10139000EA029093EB021092E7021092E60281E0DB
:1013A0008093EC020E94A4026093000170930101FB
:1013B00080930201909303018091E6029091E702ED
:1013C00001969093E7028093E6021093E502009362
:1013D000E4028091E6029091E70290937803809373
:1013E0007703DF91CF911F910F91FF90EF90DF90E6
:1013F000CF90BF90AF909F908F900C94590181E057
:1014000080937903109278031092770380917A0386
:10141000CD2BE9F4811116C0E0914503F09146030C
:10142000EE0FFF1FE95BFC4F60817181E091730358
:10143000F0917403EE0FFF1FE95BFC4F80819181F7
:101440000E94070510927603109275031EC0811149
:1014500016C0E0914503F0914603EE0FFF1FE95BD4
:10146000FC4F60817181E0917303F0917403EE0F82
:10147000FF1FE95BFC4F808191810E94070581E09D
:1014800090E0909376038093750364EF71E080E0C1
:1014900090E002C25CE2E52EFF24F394C091F302D7
:1014A000D091F402809120030E948D00C80FD91FB3
:1014B000D093F402C093F3020091F1021091F20272
:1014C000809122030E948D00080F191F1093F202D1
:1014D0000093F10261E0E61AF10801F7CE016CE237
:1014E00071E00E94F71680911A0390911B03681B0C
:1014F000790B6B01072E000CEE08FF0877FD12C078
:10150000C701B6010E94251820E030E040E05FE30B
:101510000E9481170E94ED17161617061806190665
:1015200094F013C0C701B6010E94251820E030E0F6
:1015300040E05FE30E9480170E94ED171616170621
:10154000180619066CF4EB011BC0C701B6010E9416
:10155000251820E030E040E05FE30E9481170AC0D8
:10156000C701B6010E94251820E030E040E05FE3AB
:101570000E9480170E94ED17CC27DD27C61BD70BD2
:10158000D093F402C093F302C8016CE271E00E94B0
:10159000F71680911C0390911D03681B790B6B015A
:1015A000072E000CEE08FF0877FD12C0C701B60138
:1015B0000E94251820E030E040E05FE30E948117A0
:1015C0000E94ED17161617061806190694F013C098
:1015D000C701B6010E94251820E030E040E05FE33B
:1015E0000E9480170E94ED17161617061806190696
:1015F0006CF48B011BC0C701B6010E94251820E0C6
:1016000030E040E05FE30E9481170AC0C701B601E5
:101610000E94251820E030E040E05FE30E94801740
:101620000E94ED1700271127061B170B1093F202DB
:101630000093F102D093F602C093F5021093F802E2
:101640000093F702DD24D394C017D1070CF0D12CFE
:10165000ED2CF12CC701880F991FFC01EB50FD4FB9
:1016600020813181203131050CF495C2243135407F
:101670000CF04BC0FC01E351FD4F808191814097FC
:101680000CF043C00E94A402EE0CFF1CEE0CFF1CE9
:10169000F701E45FFE4F80809180A280B380DC017F
:1016A000CB0188199909AA09BB0981359105A105C2
:1016B000B10558F18091750390917603D11012C253
:1016C000019690937603809375030E94A402F7011C
:1016D000E45FFE4F608371838283938380917903FB
:1016E000882399F00E94A4026093FB027093FC028D
:1016F0008093FD029093FE02809135039091360312
:1017000001969093360380933503D093EE02C093F5
:10171000ED021093F0020093EF028091860288237D
:10172000D1F08091750390917603181619062CF468
:1017300010927D0310927C030CC0892B61F01092F3
:1017400076031092750381E090E090937D0380937F
:101750007C031092860220913503309136038091EC
:10176000150390911603821793070CF044C00E9452
:10177000A4020091FB021091FC022091FD02309125
:10178000FE020051154F2F4F3F4F0617170728072E
:10179000390788F58091750390917603019721F5BB
:1017A0000E946E0480917A03882309F49DC1809180
:1017B00064029091650201979093650280936402A0
:1017C00081E090E020917C0330917D03232B11F088
:1017D00080E090E090937D0380937C0360ED77E060
:1017E00080E090E00E946A028091750390917603F8
:1017F000892B09F47CC180914D01882309F4CBC069
:1018000064E670E082E090E00E94C9009093FA02E2
:101810008093F90220917C0330917D034091750300
:10182000509176032115310509F044C04F3F6FEF09
:10183000560709F06FC060911503709116036F5F32
:101840007F4FE0913503F09136036E177F0709F063
:1018500075C10E946E040E94CA0680917A03882393
:10186000B9F081E090E020917C0330917D03232B3F
:1018700011F080E090E090937D0380937C03809151
:1018800064029091650201979093650280936402CF
:1018900060ED77E080E090E0DF91CF911F910F91B4
:1018A000FF90EF90DF90CF90BF90AF909F908F9080
:1018B0000C946A022130310569F54230510551F529
:1018C00060911503709116036F5F7F4FE0913503B0
:1018D000F09136036E177F0709F030C10E946E0445
:1018E0000E94DA0680917A03882391F281E090E0E9
:1018F00020917C0330917D03232B11F080E090E058
:1019000090937D0380937C038091640290916502A3
:101910000196BACF03971CF081E080931703241738
:101920003507C9F580911503909116030296209111
:101930003503309136038217930769F580911703B9
:10194000882339F16CE171E080E090E00E94770437
:1019500064E171E081E090E00E9477040E945F04FE
:1019600068EC70E080E090E00E946A020E945F04F0
:101970006CED75E080E090E00E946A020E946E04C7
:101980000E94310660ED77E080E090E00E946A02FC
:1019900002C010924D0180917503909176030197DA
:1019A00021F521E047E050E060E070E080E090E069
:1019B0000E94370E20E047E050E067E070E081E0F1
:1019C00090E00E94370E21E040E050E067E070E0D8
:1019D00082E090E00E94370E20E040E050E060E0BE
:1019E00070E083E090E00E94370E80917503909143
:1019F0007603892B21F520E047E050E060E070E0BD
:101A000080E090E00E94370E21E047E050E067E080
:101A100070E081E090E00E94370E20E040E050E06E
:101A200067E070E082E090E00E94370E21E040E045
:101A300050E060E070E083E090E00E94370E80911B
:101A4000750390917603029734F10E946E048091A1
:101A50007A038823C1F08091640290916502019716
:101A6000909365028093640281E090E020917C0372
:101A700030917D03232B11F080E090E090937D0363
:101A800080937C0302C00E94CA0660ED77E080E08C
:101A900090E00E946A02809175039091760397FF0F
:101AA000A8C00E946E0480917A038823C1F08091BF
:101AB000640290916502019690936502809364029E
:101AC00081E090E020917C0330917D03232B11F085
:101AD00080E090E090937D0380937C03D9CE0E94B8
:101AE000DA06D6CE0197EDCD0E94CA0677CE0E94C7
:101AF0006E0480917A038823C1F081E090E0209108
:101B00007C0330917D03232B11F080E090E09093D3
:101B10007D0380937C03809164029091650201961D
:101B2000909365028093640202C00E94DA0660ED21
:101B300077E080E090E00E946A025DCE03970CF0AF
:101B4000EBCE29CF8091E4029091E502069780398F
:101B5000910508F03ACC0E94A402C0900001D090F8
:101B60000101E0900201F0900301DC01CB018C192E
:101B70009D09AE09BF09CD97A105B10508F425CC93
:101B80000E94A402609304017093050180930601F2
:101B9000909307011ACCFC01E351FD4F80819181A4
:101BA00040978430954008F0B0CD0E94A402F70120
:101BB000EE0FFF1FEE0FFF1FE45FFE4FC080D180CE
:101BC000E280F380DC01CB018C199D09AE09BF09CD
:101BD00081359105A105B10508F497CD0E94A402B5
:101BE000609308017093090180930A0190930B019F
:101BF0008CCDDF91CF911F910F91FF90EF90DF90EF
:101C0000CF90BF90AF909F908F90089597FD0EC09A
:101C10002091D7033091D803821793073CF424E036
:101C20004AE0BC0181E893E00C94FA020895242F65
:101C300097FD1CC04091D7035091D8038417950796
:101C4000ACF46830710590F4FC0133E0EE0FFF1F37
:101C50003A95E1F7EF57FC4FE60FF71F208B41E075
:101C6000460FBC0181E893E00C94FA020895CF93EB
:101C7000DF9397FD3BC0E091D703F091D8038E1717
:101C80009F07A4F56830710588F54830510570F557
:101C9000EC0133E0CC0FDD1F3A95E1F7E0E8F0E02E
:101CA00002C0F595E7954A95E2F7DE01A60FB71F4A
:101CB000AF57BC4F222329F050962C915097E22B1E
:101CC00005C0E09550962C915097E2235096EC93E6
:101CD000CF57DC4FC60FD71F41E0460F2889BC0104
:101CE00081E893E0DF91CF910C94FA02DF91CF91DC
:101CF0000895AF92BF92CF92DF92EF92FF920F932F
:101D00001F93CF93DF9397FD26C02091D703309187
:101D1000D80382179307FCF468307105E0F46B0177
:101D20008C01C0E0D0E0E42EF12C87E0A82EB12C8D
:101D3000C5018C1B9D0B970102C0359527958A958F
:101D4000E2F72170A601BE01C8010E94370E21965C
:101D5000C830D10569F7DF91CF911F910F91FF90A6
:101D6000EF90DF90CF90BF90AF90089590918A024E
:101D7000981324C0E2ECF0E0E4919FEF90938A0284
:101D8000E130B9F098F0E230C9F4909170009D7F95
:101D90009093700091E09093B0009091B100987F83
:101DA00094609093B1001092B30008C010926E003E
:101DB00005C090916F009D7F90936F0060E00C9440
:101DC0009F011F920F920FB60F9211242F933F93F2
:101DD0004F935F936F937F938F939F93AF93BF9333
:101DE000EF93FF938091FF0390910004A091010471
:101DF000B0910204892B8A2B8B2B51F18091FE0329
:101E0000E091FC03F091FD0390818927808380910C
:101E1000FF0390910004A0910104B09102041816F0
:101E200019061A061B06C4F48091FF039091000462
:101E3000A0910104B09102040197A109B109809316
:101E4000FF0390930004A0930104B093020404C024
:101E500080918A020E94B60EFF91EF91BF91AF91DF
:101E60009F918F917F916F915F914F913F912F91B2
:101E70000F900FBE0F901F9018953F924F925F9258
:101E80006F927F928F929F92AF92BF92CF92DF928A
:101E9000EF92FF920F931F93CF93DF9300D000D068
:101EA000CDB7DEB790918A02981721F09F3F09F0D5
:101EB00036C204C0E2ECF0E0349081C080938A0224
:101EC000E2ECF0E0E491EF3F09F429C2E13031F1B6
:101ED000E23009F44BC0E11171C014BC15BC94B5DB
:101EE000926094BD95B5916095BDA82FB0E0FD01BD
:101EF000E255FF4FE491F0E0EE0FFF1FEC55FF4F6E
:101F0000059114911093F3030093F203FD01E05740
:101F1000FF4FE491E093F103312C53C01092800005
:101F2000109281009091810098609093810090912F
:101F30008100916090938100A82FB0E0FD01E255EF
:101F4000FF4FE491F0E0EE0FFF1FEC55FF4F0591BE
:101F500014911093F0030093EF03FD01E057FF4F3E
:101F6000E491E093EE03332433942BC01092B0003D
:101F70001092B1009091B00092609093B000909157
:101F8000B10091609093B100A82FB0E0FD01E2553F
:101F9000FF4FE491F0E0EE0FFF1FEC55FF4F05916E
:101FA00014911093FD030093FC03FD01E057FF4FD4
:101FB000E491E093FE0302E0302E03C03E2E37FC96
:101FC000AEC129013A018B0161E00E94CF014801B5
:101FD000A12CB12C832D8D7F09F0BBC060E072E194
:101FE0008AE790E0A50194010E942D1729833A8386
:101FF0004B835C8369017A0121E0C21AD108E108B0
:10200000F1088FEFC816D104E104F10409F008F4D7
:102010004CC060E472E48FE090E0A50194010E945E
:102020002D1769017A01E1E0CE1AD108E108F10823
:10203000F2E03F1220C02FEFC216D104E104F104F8
:1020400009F008F46AC160E970ED83E090E0A50151
:1020500094010E942D1769017A0181E0C81AD10804
:10206000E108F108EFEFCE16D104E104F10409F024
:10207000D0F583E067C0FFEFCF16D104E104F1048F
:10208000B1F0A8F068E478EE81E090E0A501940159
:102090000E942D1769017A0181E0C81AD108E10870
:1020A000F108332009F4DFC02FC181E001C082E0D4
:1020B0003320A1F047C089819A81AB81BC812AE09D
:1020C000B595A795979587952A95D1F76C017D01D0
:1020D00021E0C21AD108E108F10885E095B5987FA2
:1020E000892B85BD6FC068E478EE81E090E0A501A2
:1020F00094010E942D1769017A01F1E0CF1AD108ED
:10210000E108F1082FEFC216D104E104F10409F04F
:1021100008F4A7C064E274EF80E090E0A5019401A8
:102120000E942D1769017A01E1E0CE1AD108E10879
:10213000F108FFEFCF16D104E104F10411F008F02B
:10214000B4C085E09091B100987F892B8093B10055
:1021500039C060E072E18AE790E0A50194010E9435
:102160002D1769017A0181E0C81AD108E108F10848
:10217000C114D104E1E0EE06F10488F068E478EEE1
:1021800081E090E0A50194010E942D1769017A0178
:10219000F1E0CF1AD108E108F10893E001C091E025
:1021A00021E032120FC080918100887F892B8093BB
:1021B0008100411451046104710449F42FEF3FEF91
:1021C000A9012DC0411451046104710471F0D801BA
:1021D000AA0FBB1FA30192010E944C1728EE33E007
:1021E00040E050E00E940B1703C02FEF3FEFA90122
:1021F00081E03816A1F0E2E03E1619F131108FC0EF
:10220000C7BC2093F8033093F9034093FA0350932B
:10221000FB0380916E00826080936E0080C0D0923C
:102220008900C09288002093F4033093F503409313
:10223000F6035093F70380916F00826080936F00E4
:102240006EC0C092B3002093FF033093000440930C
:1022500001045093020480917000826080937000AA
:102260005EC084E06FCFFFEFCF16D104E104F1042C
:10227000D1F0C8F062E17AE780E090E0A501940136
:102280000E942D1769017A0181E0C81AD108E1087E
:10229000F108EFEFCE16D104E104F10411F008F0DB
:1022A0000ACF84E01BCF83E019CF62E17AE780E0B8
:1022B00090E0A50194010E942D1769017A0181E047
:1022C000C81AD108E108F108EFEFCE16D104E104F5
:1022D000F104C1F0B8F089819A81AB81BC814AE0F8
:1022E000B595A795979587954A95D1F76C017D018E
:1022F00021E0C21AD108E108F108332009F4EDCE3B
:1023000087E020CF86E0D4CEFFEFCF16D104E104E2
:10231000F10409F050F684E0CBCE82E013CF0F90A9
:102320000F900F900F90DF91CF911F910F91FF9021
:10233000EF90DF90CF90BF90AF909F908F907F9065
:102340006F905F904F903F900895CF93DF93282F29
:1023500030E0F901E458FF4F8491F901E057FF4F55
:10236000D491F901E255FF4FC491CC2391F0811132
:102370000E947601EC2FF0E0EE0FFF1FEE58FF4FAA
:10238000A591B491EC91ED2381E090E021F480E0FF
:1023900002C080E090E0DF91CF910895EF92FF922C
:1023A0000F931F93CF93DF9384E090E090932703E4
:1023B0008093260322E030E0309329032093280302
:1023C00023E030E030932B0320932A032EE030E00B
:1023D00030932103209320032FE030E03093230338
:1023E0002093220320E130E030932503209324033F
:1023F000CCE0D0E0D093D203C093D1032AE030E008
:102400003093D4032093D3032BE030E03093D603F2
:102410002093D5039093D8038093D70361E08CE099
:102420000E94CF0161E08091D3030E94CF0161E05F
:102430008091D5030E94CF0161E08091D5030E9475
:102440009F01D093D203C093D103E1E9F3E011924D
:1024500083E0E13DF807D9F781E8E82E83E0F82E24
:10246000C0E0D0E08091D7039091D803C817D90776
:102470000CF044C020E04FE0BE0181E893E00E94F0
:10248000FA02D7FD0EC08091D7039091D803C817E8
:10249000D9073CF427E04BE0BE0181E893E00E94BD
:1024A000FA0220E049E0BE0181E893E00E94FA02CE
:1024B000D7FD19C08091D7039091D803C817D907C9
:1024C00094F401E010E0F701E00FF11F178620E01F
:1024D000402FBE0181E893E00E94FA020F5F1F4F78
:1024E0000930110581F741E0BE0181E893E00E94C7
:1024F0008103219688E0E80EF11CB4CFDF91CF91E3
:102500001F910F91FF90EF900895CF93DF9300D02C
:10251000CDB7DEB7789484B5826084BD84B5816020
:1025200084BD85B5826085BD85B5816085BD80919E
:102530006E00816080936E00109281008091810016
:10254000826080938100809181008160809381000E
:10255000809180008160809380008091B1008460D0
:102560008093B1008091B00081608093B000809131
:102570007A00846080937A0080917A0082608093F0
:102580007A0080917A00816080937A0080917A004D
:10259000806880937A001092C10040E060E070E0B3
:1025A00081E893E00E94810340E061E070E081E80F
:1025B00093E00E94810340E062E070E081E893E0F4
:1025C0000E94810340E063E070E081E893E00E94B4
:1025D000810380E090E00E94060E81E090E00E947E
:1025E000060E82E090E00E94060E83E090E00E94DA
:1025F000060E61E085E00E94CF0160E084E00E9469
:10260000CF0160E082E00E94CF0160E083E00E94A1
:10261000CF0161E084E00E949F0161E082E00E94BE
:102620009F0161E083E00E949F018CE192E0909322
:1026300048038093470384E192E090934A03809398
:1026400049038CE092E090934C0380934B0384E029
:1026500092E090934E0380934D038CEF91E0909322
:10266000500380934F0384EF91E090935203809343
:1026700051038CEE91E0909354038093530384EEC6
:1026800091E090935603809355038CED91E09093E5
:1026900058038093570384ED91E090935A038093FD
:1026A00059038CEC91E090935C0380935B038EE77D
:1026B00092E090935E0380935D0384EC91E09093AD
:1026C000600380935F038CEB91E0909362038093AF
:1026D000610384EB91E090936403809363038CEA3D
:1026E00091E0909366038093650384EA91E0909370
:1026F0006803809367038CE991E090936A03809369
:10270000690384E991E090936C0380936B038CE8F8
:1027100091E090936E0380936D0384E891E0909331
:10272000700380936F038CE791E090937203809322
:10273000710389E791E09093DA038093D90386E7E8
:1027400091E09093DC038093DB0383E791E0909327
:10275000DE038093DD0380E791E09093E0038093B4
:10276000DF038DE691E09093E2038093E1038AE634
:1027700091E09093E4038093E30387E691E09093E4
:10278000E6038093E50384E691E09093E803809369
:10279000E70381E691E09093EA038093E9038EE5F5
:1027A00091E09093EC038093EB0366E571E080E0A9
:1027B00090E00E9477046EE471E081E090E00E9476
:1027C000770468EE73E080E090E00E946A026CE2B9
:1027D00071E080E090E00E94E4036CE271E081E04F
:1027E00090E00E94E40364E670E082E090E00E94E2
:1027F000E4030E9471051AE0A12EB12C04E6402EDC
:10280000512C8AE0282E312C80E090E00E94EA06CC
:102810006C0181E090E00E94EA067C0182E090E099
:102820000E94EA068C0184E0C816D10421F094E0ED
:10283000E916F10411F40E94710504301105F1F458
:1028400080918902A1E08A27809389028CE291E03D
:102850000E944B0464E670E080E090E00E946A020F
:1028600086E990E00E944B0464E670E080E090E02E
:102870000E946A028CE291E00E944B0480918003E6
:10288000882309F4FFC00E94A4020091390310912B
:102890003A0320913B0330913C0308511C4F2F4FCA
:1028A0003F4F061717072807390708F098C280918D
:1028B000370390913803049721F410923803109253
:1028C00037030E94A4026093390370933A03809304
:1028D0003B0390933C03809137039091380301961A
:1028E00090933803809337038130910509F58091E7
:1028F0007A03811115C0E0914503F0914603EE0F74
:10290000FF1FE95BFC4F60817181E0917303F091DF
:102910007403EE0FFF1FE95BFC4F808191815DC264
:102920008091640290916502049709F052C24AC2F4
:102930008230910519F46CE272E09DC0039709F0B2
:1029400098C06DE373E0CB010E940705E091350369
:10295000F0913603CF01B5010E94F7169B01DC010F
:10296000AA0FBB1FA752BC4F8C9011969C90CF0111
:10297000B2010E94F716CB01B5010E94F716DC01E7
:10298000AA0FBB1FAD0147525C4FDA01BC91B9835E
:10299000DA011196BC91BA83CF0168EE73E00E9410
:1029A000F716CB01B5010E94F716FC01EE0FFF1FD1
:1029B000E752FC4FC080D180C901B5010E94F716D3
:1029C000FC01EE0FFF1FE752FC4FE080F18000E0BA
:1029D00010E03601F60141916F01B80180E090E00E
:1029E0000E94790ED3014C91B80183E090E00E94DF
:1029F000790E3701F70141917F01B80181E090E044
:102A00000E94790ED3014C91B80182E090E00E94BF
:102A1000790E0F5F1F4F03301105D9F6C980DA8098
:102A2000740105E010E04601F60141916F01B80123
:102A300080E090E00E94790ED4014C91B80183E0CF
:102A400090E00E94790E4701F70141917F01B801A2
:102A500081E090E00E94790ED4014C91B80182E0AF
:102A600090E00E94790E0F5F1F4F08301105D9F6D4
:102A7000B6C164E272E080E090E00E9477046DE30A
:102A800073E054C080917F03811155C0CA94CD2852
:102A900089F43092880220928702E1E0E0937F037C
:102AA000E093ED0310928602E0937E0310927D0383
:102AB00010927C0380917B03EA94EF28F9F4811152
:102AC00007C08FE090E0909388028093870206C051
:102AD000ACE0B0E0B0938802A0938702B1E0B0937D
:102AE0007F031092ED031092860210927E0381E024
:102AF00090E090937D0380937C0371C1882349F01B
:102B00006EE772E080E090E00E94770466E772E092
:102B10000DC080918902882309F461C16EE672E0DC
:102B200080E090E00E94770466E672E081E090E049
:102B30000E94770454C190907A0391107EC0E1E026
:102B4000CE16D10429F40E945F040E94DA0614C054
:102B5000F2E0CF16D10481F4809173039091740355
:102B6000181619062CF4019790937403809373033D
:102B70000E946E040E94310681E0E816F10429F4F7
:102B80000E945F040E94CA0614C092E0E916F10494
:102B900081F48091450390914603181619062CF490
:102BA000019790934603809345030E946E040E9410
:102BB000310601301105B1F50E946E04A1E0A09329
:102BC0007903109278031092770380917C0390919F
:102BD0007D03009789F41092760310927503E091BB
:102BE0007303F0917403EE0FFF1FE95BFC4F6081EC
:102BF000718180E090E00EC010937603009375031E
:102C0000E0914503F0914603EE0FFF1FE95BFC4F97
:102C1000608171810E94A90464EF71E080E090E01E
:102C20000E946A02C114D10441F4E114F10429F4B0
:102C30000115110511F40E942C08809173039091E5
:102C400074038431910559F48091450390914603B2
:102C5000449779F580917B0381112BC00CC00A97B2
:102C600041F580914503909146030A9711F58091B3
:102C70007B038823F1F091101FC068EE73E080E0C1
:102C800090E00E946A026CE372E080E090E00E94B3
:102C9000770464E372E081E090E00E9477046CEDD9
:102CA00075E080E090E00E946A02B1E0B0937A03A0
:102CB00096C0992009F493C0E1E0CE16D104B9F48E
:102CC00080916402909165020196909365028093D1
:102CD000640281E090E020917C0330917D03232BFE
:102CE00011F080E090E090937D0380937C03F1E00D
:102CF000EF16F104B9F48091640290916502019796
:102D0000909365028093640281E090E020917C03BF
:102D100030917D03232B11F080E090E090937D03B0
:102D200080937C030130110531F50E946E0481E02F
:102D300080937903109278031092770380917C033B
:102D400090917D036DE373E0892B41F4CB010E94E8
:102D50000705109276031092750307C0CB010E94FD
:102D60000705109376030093750364EF71E080E02C
:102D700090E00E946A02CD2831F4EF2821F4012B63
:102D800011F40E942C0880916402909165028230B7
:102D9000910521F464E472E0CB011FC083309105FA
:102DA00029F464E572E08CE492E017C0813091056B
:102DB00029F46CE472E084E592E00FC004973CF0E3
:102DC0000E9494036DE373E08CE592E006C00E94DC
:102DD00094036CE572E08DE393E00E940705A0E0A8
:102DE000B0E0AB2B09F410CD0E9400000DCD97FB95
:102DF000072E16F4009407D077FD09D00E945717CC
:102E000007FC05D03EF4909581959F4F08957095ED
:102E100061957F4F0895A1E21A2EAA1BBB1BFD01ED
:102E20000DC0AA1FBB1FEE1FFF1FA217B307E407A9
:102E3000F50720F0A21BB30BE40BF50B661F771F01
:102E4000881F991F1A9469F76095709580959095E1
:102E50009B01AC01BD01CF010895052E97FB1EF427
:102E600000940E94441757FD07D00E940B1707FCDF
:102E700003D04EF40C94441750954095309521950D
:102E80003F4F4F4F5F4F0895909580957095619596
:102E90007F4F8F4F9F4F08950E947117A59F900DF0
:102EA000B49F900DA49F800D911D11240895AA1B1D
:102EB000BB1B51E107C0AA1FBB1FA617B70710F025
:102EC000A61BB70B881F991F5A95A9F78095909557
:102ED000BC01CD010895EE0FFF1F0590F491E02D88
:102EE0000994A29FB001B39FC001A39F700D811DE3
:102EF0001124911DB29F700D811D1124911D089503
:102F00005058BB27AA270E9498170C9477180E9444
:102F1000691838F00E94701820F039F49F3F19F4B6
:102F200026F40C9466180EF4E095E7FB0C946018F8
:102F3000E92F0E94881858F3BA17620773078407AD
:102F4000950720F079F4A6F50C94AA180EF4E095F4
:102F50000B2EBA2FA02D0B01B90190010C01CA0153
:102F6000A0011124FF27591B99F0593F50F4503EFE
:102F700068F11A16F040A22F232F342F4427585FF0
:102F8000F3CF469537952795A795F0405395C9F708
:102F90007EF41F16BA0B620B730B840BBAF09150C0
:102FA000A1F0FF0FBB1F661F771F881FC2F70EC05F
:102FB000BA0F621F731F841F48F487957795679532
:102FC000B795F7959E3F08F0B0CF9395880F08F01E
:102FD0009927EE0F9795879508950E94F4176894A6
:102FE000B1110C94AB1808950E94901888F09F5767
:102FF00098F0B92F9927B751B0F0E1F0660F771F1D
:10300000881F991F1AF0BA95C9F714C0B13091F012
:103010000E94AA18B1E008950C94AA18672F782F7F
:103020008827B85F39F0B93FCCF3869577956795D7
:10303000B395D9F73EF490958095709561957F4F43
:103040008F4F9F4F0895E89409C097FB3EF49095E9
:103050008095709561957F4F8F4F9F4F9923A9F071
:10306000F92F96E9BB279395F69587957795679500
:10307000B795F111F8CFFAF4BB0F11F460FF1BC044
:103080006F5F7F4F8F4F9F4F16C0882311F096E9D7
:1030900011C0772321F09EE8872F762F05C0662385
:1030A00071F096E8862F70E060E02AF09A95660F3E
:1030B000771F881FDAF7880F9695879597F90895F7
:1030C00097F99F6780E870E060E008959FEF80ECDB
:1030D000089500240A94161617061806090608957E
:1030E00000240A9412161306140605060895092EE4
:1030F0000394000C11F4882352F0BB0F40F4BF2B53
:1031000011F460FF04C06F5F7F4F8F4F9F4F089592
:1031100057FD9058440F551F59F05F3F71F0479588
:10312000880F97FB991F61F09F3F79F0879508956D
:10313000121613061406551FF2CF4695F1DF08C08C
:10314000161617061806991FF1CF869571056105A9
:1031500008940895E894BB2766277727CB0197F951
:1031600008950E94C4180C9477180E94691838F0CA
:103170000E94701820F0952311F00C9460180C94A4
:10318000661811240C94AB180E94881870F3959F50
:10319000C1F3950F50E0551F629FF001729FBB274E
:1031A000F00DB11D639FAA27F00DB11DAA1F649FEA
:1031B0006627B00DA11D661F829F2227B00DA11D9D
:1031C000621F739FB00DA11D621F839FA00D611D23
:1031D000221F749F3327A00D611D231F849F600D44
:1031E000211D822F762F6A2F11249F5750409AF06D
:1031F000F1F088234AF0EE0FFF1FBB1F661F771FF9
:10320000881F91505040A9F79E3F510580F00C94C3
:1032100060180C94AB185F3FE4F3983ED4F38695A6
:1032200077956795B795F795E7959F5FC1F7FE2B63
:10323000880F911D9695879597F90895F894FFCF7B
:10324000FFFFFFFFFFFFFFFFFFFFFFFFFFFFFFFF8E
:10325000FFFFFFFF080E080FE040404088C8E8A8C5
:10326000B898000F010101FFFFFFFFFFFFFFFFFF05
:10327000FFFFFFFFFFFFFFFFFFFFFFFFFFFFFF015C
:103280000101010101E0A0E08E8A0A0E000100E0C8
:10329000A0AE0A0E020EE0A0E08E84040E0074546C
:1032A0007C7C547C40407C7C545C74545C70107C0E
:1032B00054547C5C5474247C047C447C00E226E2FC
:1032C00082E7000000E725E585E700000047C547E5
:1032D00041E700000047C54745E700000047C141FE
:1032E00041E100000047C44745E700000047C447EC
:1032F00041E700000045C54741E100000047C147E4
:1033000041E700000047C14744E700000047C545CA
:1033100045E7000000E7A5A7A1E7000000E7A5A793
:10332000A5E7000000E7A1A1A1E1000000E7A4A734
:10333000A5E7000000E7A4A7A1E7000000E5A5A716
:10334000A1E1000000E7A1A7A1E7000000E7A1A715
:10335000A4E7000000E2A6A2A2E7000000E7A5A5FE
:10336000A5E7000000E688EC828E000000EC4A4CE5
:103370004A4C0000A8EE00E7E482EE0000CEA8ACC4
:10338000A8CE00AE00382424242438000018187E6B
:103390007E181800000000E7E70000003C42A5810D
:1033A000A599423C0200CE88EC08CEA0A0C0708750
:1033B0006517E404E4800000E7A2E2828200004294
:1033C000C64242E70000010A0001FF270527050069
:1033D00000270500007003270520060000100300E9
:1033E00000080008000800080008000800040004A5
:1033F000000400040002000B020B020B020B029FF0
:1034000001D20100000B020000D2010B02080008EB
:10341000000800030003000400400006002000082C
:0434200000010000A7
:107E0000112484B714BE81FFF0D085E080938100F7
:107E100082E08093C00088E18093C10086E0809377
:107E2000C20080E18093C4008EE0C9D0259A86E02C
:107E300020E33CEF91E0309385002093840096BBD3
:107E4000B09BFECF1D9AA8958150A9F7CC24DD24C4
:107E500088248394B5E0AB2EA1E19A2EF3E0BF2EE7
:107E6000A2D0813461F49FD0082FAFD0023811F036
:107E7000013811F484E001C083E08DD089C08234E0
:107E800011F484E103C0853419F485E0A6D080C0E4
:107E9000853579F488D0E82EFF2485D0082F10E0AE
:107EA000102F00270E291F29000F111F8ED06801E7
:107EB0006FC0863521F484E090D080E0DECF843638
:107EC00009F040C070D06FD0082F6DD080E0C81688
:107ED00080E7D80618F4F601B7BEE895C0E0D1E017
:107EE00062D089930C17E1F7F0E0CF16F0E7DF06D8
:107EF00018F0F601B7BEE89568D007B600FCFDCFD4
:107F0000A601A0E0B1E02C9130E011968C91119780
:107F100090E0982F8827822B932B1296FA010C0160
:107F200087BEE89511244E5F5F4FF1E0A038BF0790
:107F300051F7F601A7BEE89507B600FCFDCF97BE46
:107F4000E89526C08437B1F42ED02DD0F82E2BD052
:107F50003CD0F601EF2C8F010F5F1F4F84911BD097
:107F6000EA94F801C1F70894C11CD11CFA94CF0C13
:107F7000D11C0EC0853739F428D08EE10CD085E9AC
:107F80000AD08FE07ACF813511F488E018D01DD067
:107F900080E101D065CF982F8091C00085FFFCCF94
:107FA0009093C60008958091C00087FFFCCF809118
:107FB000C00084FD01C0A8958091C6000895E0E648
:107FC000F0E098E1908380830895EDDF803219F02E
:107FD00088E0F5DFFFCF84E1DECF1F93182FE3DFCA
:107FE0001150E9F7F2DF1F91089580E0E8DFEE27F6
:047FF000FF270994CA
:027FFE00040479
:0400000300007E007B
:00000001FF