:100000000C9463000C948B000C948B000C948B006C
:100010000C948B000C948B000C948B000C94EB10C4
:100020000C948B000C948B000C948B000C948B0024
:100030000C948B000C948B000C948B000C948B0014
:100040000C94620D0C948B000C94280B0C94020BF6
:100050000C948B000C948B000C948B000C948B00F4
:100060000C948B000C948B000000000024002700EF
:100070002A000000000023002600290000000008DC
:10008000000201000003040700000000000000005F
:10009000010204081020408001020408102001021F
:1000A0000408102000000000250028002B00040494
:1000B0000404040404040202020202020303030310
:1000C00003030200291811241FBECFEFD8E0DEBFC2
:1000D000CDBF13E0A0E0B1E0E0EAF6E302C0059096
:1000E0000D92A631B107D9F724E0A6E1B3E001C033
:1000F0001D92A23DB207E1F710E0C3E6D0E004C0D4
:100100002197FE010E949619C236D107C9F70E94B5
:10011000AF130C944E1B0C940000809197039091A8
:100120009803892B41F44091920367E070E081E0ED
:1001300090E00E94330F809197039091980301976C
:1001400041F44091920367E070E082E090E00C940B
:10015000330F08951092940381E080934D01109223
:1001600049030C94EA0EEF92FF920F931F93CF93E3
:10017000DF937C018B01C0E0D0E0F8014081BE013B
:10018000E114F10451F480E090E00E94330FF80193
:100190004081BE0183E090E009C081E090E00E94D0
:1001A000330FF8014081BE0182E090E00E94330FDE
:1001B00021960F5F1F4FC830D105F9F6DF91CF911F
:1001C0001F910F91FF90EF900895CF92DF92FF92D1
:1001D0000F931F93CF93DF936C018B01C0E0D0E0AE
:1001E000FF24F394C114D10491F4F8014081BE01BD
:1001F00081E090E00E94330F909195039F25BE010E
:10020000690F711DF801408183E090E011C0909169
:1002100095039F25BE01690F711DF801408180E0A3
:1002200090E00E94330FF8014081BE0182E090E02F
:100230000E94330F21960F5F1F4FC830D10591F6F2
:1002400080919B03811117C00E948D0040E060E007
:1002500070E080E090E00E94330F40E060E070E0EA
:1002600083E090E0DF91CF911F910F91FF90DF909D
:10027000CF900C94330FDF91CF911F910F91FF908E
:10028000DF90CF9008959F92AF92BF92CF92DF926E
:10029000EF92FF920F931F93CF93DF937B018C011B
:1002A000C0E0D0E09924939457018091950389256B
:1002B000BE01680F711DF70141917F0180E090E060
:1002C0000E94330F6801F80141918F01BE0181E066
:1002D00090E00E94330FF5014081BE0182E090E082
:1002E0000E94330F909195039925BE01690F711DEE
:1002F000F601408183E090E00E94330F2196C830E0
:10030000D10591F680919B0381111BC00E948D0045
:1003100040E060E070E080E090E00E94330F40E059
:1003200060E070E083E090E0DF91CF911F910F914A
:10033000FF90EF90DF90CF90BF90AF909F900C9484
:10034000330FDF91CF911F910F91FF90EF90DF90CE
:10035000CF90BF90AF909F900895AF92BF92CF92F1
:10036000DF92EF92FF920F931F93CF93DF9384E07E
:100370000E945A0B892B31F482E00E945A0B892B80
:1003800009F4A4C010928F0310928E03109261039F
:100390001092600382E090E0909365028093640283
:1003A0001092950310929A0310929B0366E571E0F8
:1003B00080E090E00E94B3006EE471E081E090E0A4
:1003C0000E94B30068EE73E080E090E00E94CC0CE5
:1003D00064E572E0CB010E94430164EF71E080E0CC
:1003E00090E00E94CC0C65E471E080E090E00E9417
:1003F000B3006EE471E081E090E00E94B30068EE2B
:1004000073E080E090E00E94CC0CC1EAD2E00BE8FF
:1004100012E088EEA82E83E0B82E69917991C5018B
:100420000E9422196B01F801619171918F010D2CCD
:10043000000CEE08FF08A701960185E00E94471115
:10044000C701B6010E94501A26E636E646EA5FE387
:100450000E94DC1A0E94181A072E000C880B990BB8
:100460000E94CC0C85E00E94C010F2E0C93BDF077F
:10047000A1F66CE172E0CB010E944301109294035B
:1004800081E080934D01109249038093860210927F
:100490005303109252031092480310924703109294
:1004A00051031092500310929103109290031092F6
:1004B000980310929703DF91CF911F910F91FF90B6
:1004C000EF90DF90CF90BF90AF90089590919603FA
:1004D00081E089278093960355CF809189028823F4
:1004E00051F00E94560D6093430370934403809330
:1004F00045039093460380919503811186C0E09156
:100500006003F0916103EE0FFF1FEE59FC4F608115
:100510007181E0918E03F0918F03EE0FFF1FEE5972
:10052000FC4F808191810E94430180918E039091C4
:100530008F03209196038531910539F04091600336
:10054000509161034531510519F421115AC00AC077
:100550000B9731F080916003909161030B97B1F498
:100560002223A1F081E080939B0364EC74E080E09F
:1005700090E00E94CC0C68E573E0CB010E9443013F
:100580006CED70E080E090E00E94CC0C60918E03F6
:1005900070918F038091600390916103860F971F84
:1005A00020919603211106C065E070E00E94221997
:1005B000CB0104C097FD01969595879562E070E0A8
:1005C0000E9422199C0190919903232B69F421E048
:1005D00030E030939803209397039923B1F0109261
:1005E000980310929703089510929803109297031E
:1005F000992359F081E090E09093980380939703BA
:1006000008950B9709F0A6CFADCF089580916003B0
:1006100090916103853191052CF4019690936103CB
:10062000809360030E94AA000C946D0280918E0357
:1006300090918F03853191052CF4019690938F034F
:1006400080938E030E94AA000C946D024F925F92D9
:100650006F927F92AF92BF92DF92EF92FF920F93D1
:100660001F93CF93DF93EC01FC01EE0FFF1FE954C2
:10067000FB4F80810E945A0BDD24D394892B09F40F
:10068000D12CFE01EE5BFE4FD082CE01815C9E4FED
:100690005C017E01EE0CFF1CEE0CFF1CF50180815D
:1006A000D1109DC0882309F44CC00E94560DF7015B
:1006B000ED5CFE4F4080518062807380DC01CB0195
:1006C00084199509A609B7094597A105B105C8F18F
:1006D0000E94560DF701E95DFE4F608371838283AE
:1006E0009383FE01E05CFC4F1082FE01E35CFC4F53
:1006F000108211E0FE01EC5DFE4F1083FE01E65C0E
:10070000FC4F1082FE01E95CFC4F10820E94560DE6
:10071000AB01BC014419550966097709FE01EC5C7F
:10072000FC4FDE01AF5CBC4F4E3551406105710599
:10073000F8F4808181111CC08C918823C9F010834A
:100740001C920E94560DF701E95DFE4F40805180DA
:1007500062807380DC01CB0184199509A609B70971
:10076000883E9340A105B10528F400E010E09FC049
:100770001082E6CFDE01A65CBC4F8C91811115C0C2
:1007800081E0FE01E35CFC4F8083FE01E05CFC4FF6
:100790008083FE01EC5CFC4F1082FE01EF5CFC4F9D
:1007A00010828C9303E010E002C000E010E00E9491
:1007B000560DDC01CB0184199509A609B709803BC8
:1007C0009440A105B10508F472C0C95CDC4F888172
:1007D00081116DC081E0888304E010E068C0811160
:1007E00063C00E94560DF701E95DFE4F0081118143
:1007F00022813381DC01CB01801B910BA20BB30B57
:100800004597A105B10508F44FC0FE01E05CFC4F1F
:100810008081811149C00E94560DF701ED5CFE4FA9
:100820006083718382839383DE01AC5CBC4F8C91C7
:10083000FE01EF5CFC4F811103C081E0808334C076
:100840001C921082FE01EC5DFE4F108202E010E06F
:100850000E94560DF701ED5CFE4F40805180628092
:100860007380DC01CB0184199509A609B7098E357F
:100870009140A105B105D8F0FE01EF5CFC4F8081ED
:100880008823A9F0DE01AC5CBC4F8C9181110FC0B4
:10089000CC5DDE4F8881882351F00230110539F09C
:1008A000108201E010E003C000E010E0D1CFF501BC
:1008B000D082C801DF91CF911F910F91FF90EF90EF
:1008C000DF90BF90AF907F906F905F904F900895B2
:1008D0008F929F92AF92BF92CF92DF92EF92FF9250
:1008E0000F931F93CF93DF938091940381110EC2D6
:1008F0008091500390915103909348038093470354
:1009000080918602811180C080919B0381117CC0FF
:100910000E94560D009154031091550320915603E7
:1009200030915703045D1E4F2F4F3F4F0617170797
:100930002807390708F068C081E090E02091520351
:1009400030915303232B11F080E090E090935303F8
:10095000809352030E94560D609354037093550385
:1009600080935603909357038091520390915303C1
:10097000892B39F068E573E0809197039091980393
:1009800023C080919503882349F18091640290915E
:1009900065028330910559F48091970390919803F3
:1009A0000097A9F46CE472E080E090E00DC001973C
:1009B00089F480919703909198038130910539F4DF
:1009C0006CE472E081E090E00E94E5001DC064E507
:1009D00072E0FACF64E472E0CB0114C0E0916003EE
:1009E000F0916103EE0FFF1FEE59FC4F60817181A2
:1009F000E0918E03F0918F03EE0FFF1FEE59FC4F35
:100A0000808191810E94430180918902882309F4A9
:100A100068C00E94560D0091430310914403209139
:100A20004503309146030854144F2F4F3F4F06178C
:100A300017072807390708F054C06AE070E080E023
:100A400090E00E94CC0C2091970330919803809104
:100A50009503232BE9F4811116C0E0916003F09116
:100A60006103EE0FFF1FEE59FC4F60817181E09131
:100A70008E03F0918F03EE0FFF1FEE59FC4F808124
:100A800091810E94430110929103109290031EC025
:100A9000811116C0E0916003F0916103EE0FFF1F1A
:100AA000EE59FC4F60817181E0918E03F0918F03CC
:100AB000EE0FFF1FEE59FC4F808191810E94430190
:100AC00081E090E0909391038093900381E0809384
:100AD0009403109293031092920386E990E00E948F
:100AE000D60E8091920390919303C0919703D09179
:100AF000980303970CF0BFC06CE271E0CE010E9436
:100B0000460E8C01CC0FDD1FC95DDC4F19830883B5
:100B100080911E03882329F10E94560DC0901A036C
:100B2000D0901B03E0901C03F0901D0328EEC20E32
:100B300023E0D21EE11CF11CC616D706E806F90612
:100B400080F40E94560D60931A0370931B038093E8
:100B50001C0390931D031092190310921803109216
:100B60001E03063011050CF467C4063911050CF09C
:100B700068C0809116039091170306970CF061C02E
:100B80000E94560DC0900401D0900501E09006012E
:100B9000F0900701DC01CB018C199D09AE09BF095A
:100BA000CD97A105B10508F44CC080911803909130
:100BB0001903892B69F40E94560D60931A037093F0
:100BC0001B0380931C0390931D0381E080931E03FD
:100BD0000E94560DC0901A03D0901B03E0901C0396
:100BE000F0901D0348EEC40E43E0D41EE11CF11C3E
:100BF000C616D706E806F90688F40E94560D6093DB
:100C00001A0370931B0380931C0390931D0310928F
:100C100019031092180381E080931E030E94560D61
:100C2000609300017093010180930201909303018E
:100C30008091180390911903019690931903809362
:100C400018031093170300931603809118039091D3
:100C500019039093930380939203DF91CF911F9197
:100C60000F91FF90EF90DF90CF90BF90AF909F904B
:100C70008F900C948D0081E08093940310929303E5
:100C80001092920380919503CD2BE9F4811116C047
:100C9000E0916003F0916103EE0FFF1FEE59FC4FEE
:100CA00060817181E0918E03F0918F03EE0FFF1F41
:100CB000EE59FC4F808191810E9443011092910373
:100CC000109290031EC0811116C0E0916003F09154
:100CD0006103EE0FFF1FEE59FC4F60817181E091BF
:100CE0008E03F0918F03EE0FFF1FEE59FC4F8081B2
:100CF00091810E94430181E090E090939103809361
:100D0000900364EF71E080E090E000C25CE2E52EC9
:100D1000FF24F394C0912503D09126038091B10460
:100D20000E944E0CC80FD91FD0932603C0932503F1
:100D300000912303109124038091B3040E944E0C70
:100D4000080F191F109324030093230381E0E81A6E
:100D5000F10801F7CE016CE271E00E942219809146
:100D60004A0390914B03681B790B6B01072E000C13
:100D7000EE08FF0877FD12C0C701B6010E94501AA5
:100D800020E030E040E05FE30E94AC190E94181AB6
:100D9000161617061806190694F013C0C701B601F7
:100DA0000E94501A20E030E040E05FE30E94AB195F
:100DB0000E94181A16161706180619066CF4EB018D
:100DC0001BC0C701B6010E94501A20E030E040E08D
:100DD0005FE30E94AC190AC0C701B6010E94501A15
:100DE00020E030E040E05FE30E94AB190E94181A57
:100DF000CC27DD27C61BD70BD0932603C093250332
:100E0000C8016CE271E00E94221980914C0390911C
:100E10004D03681B790B6B01072E000CEE08FF08D1
:100E200077FD12C0C701B6010E94501A20E030E0E1
:100E300040E05FE30E94AC190E94181A16161706CC
:100E40001806190694F013C0C701B6010E94501A83
:100E500020E030E040E05FE30E94AB190E94181AE6
:100E600016161706180619066CF48B011BC0C7016D
:100E7000B6010E94501A20E030E040E05FE30E949B
:100E8000AC190AC0C701B6010E94501A20E030E038
:100E900040E05FE30E94AB190E94181A0027112757
:100EA000061B170B1093240300932303D0932803EE
:100EB000C093270310932A0300932903DD24D394BE
:100EC000C017D1070CF0D12CED2CF12CC701880FE5
:100ED000991FFC01E95DFC4F2081318126303105ED
:100EE0000CF4D3C2243135400CF04AC0FC01E15E61
:100EF000FC4F8081918106970CF042C00E94560DF4
:100F0000EE0CFF1CEE0CFF1CF701E45FFE4F80802F
:100F10009180A280B380DC01CB0188199909AA09CC
:100F2000BB09C397A105B10558F180919003909139
:100F30009103D11051C20196909391038093900335
:100F40000E94560DF701E45FFE4F60837183828338
:100F5000938380919403882399F00E94560D6093A7
:100F60002D0370932E0380932F0390933003809171
:100F70005003909151030196909351038093500335
:100F8000D0932003C0931F031093220300932103E7
:100F9000809186028823D1F08091900390919103F3
:100FA000181619062CF410929803109297030CC08F
:100FB000892B61F0109291031092900381E090E0F0
:100FC0009093980380939703109286022091500388
:100FD0003091510380914703909148038217930702
:100FE0000CF044C00E94560D00912D0310912E0369
:100FF00020912F03309130030051154F2F4F3F4F59
:10100000061717072807390788F5809190039091F4
:101010009103019721F50E94AA00809195038823EE
:1010200009F4DCC18091640290916502019790936C
:1010300065028093640281E090E0209197033091F3
:101040009803232B11F080E090E090939803809315
:10105000970368EE73E080E090E00E94CC0C8091F2
:10106000900390919103892B09F4BBC180914D01AC
:10107000882309F40AC164E670E082E090E00E94EF
:10108000460E90932C0380932B032091970330916D
:1010900098032115310509F047C020919003309144
:1010A00091032F3F3F4F09F073C0209147033091C8
:1010B00048032F5F3F4F4091500350915103241735
:1010C000350709F0B5C10E94AA000E94060380916D
:1010D00095038823B9F081E090E020919703309147
:1010E0009803232B11F080E090E090939803809375
:1010F0009703809164029091650201979093650235
:101100008093640268EE73E080E090E0DF91CF911D
:101110001F910F91FF90EF90DF90CF90BF90AF9015
:101120009F908F900C94CC0C2130310589F5209143
:101130009003309191032230310551F520914703FE
:10114000309148032F5F3F4F40915003509151031E
:101150002417350709F06CC10E94AA000E941603EB
:1011600080919503882371F281E090E020919703AC
:1011700030919803232B11F080E090E09093980336
:101180008093970380916402909165020196B6CF97
:101190000297BCF181E0809349038DEF92E00E94B9
:1011A000D20FC0902B03D0902C030D2C000CEE0816
:1011B000FF08F7FE14C0E091BC03F091BD0301905D
:1011C000F081E02D6DE28CEB93E00995662777279F
:1011D000CB016C197D098E099F094AE003C04AE0E2
:1011E000C701B6010E94E40F89E093E00E94D20F8C
:1011F0000E94560D4AE00E94E40F83E193E00E94B2
:10120000D20F209197033091980380919003909191
:10121000910328173907C9F5809147039091480336
:10122000029620915003309151038217930769F57C
:1012300080914903882339F16CE171E080E090E00E
:101240000E94B30064E171E081E090E00E94B3008D
:101250000E94EA0E68EC70E080E090E00E94CC0C06
:101260000E94EA0E6CED75E080E090E00E94CC0CEC
:101270000E94AA000E946D0268EE73E080E090E098
:101280000E94CC0C02C010924D018091900390916D
:101290009103019721F521E047E050E060E070E024
:1012A00080E090E00E94530F20E047E050E067E0CC
:1012B00070E081E090E00E94530F21E040E050E0B8
:1012C00067E070E082E090E00E94530F20E040E091
:1012D00050E060E070E083E090E00E94530F809166
:1012E000900390919103892B21F520E047E050E095
:1012F00060E070E080E090E00E94530F21E047E062
:1013000050E067E070E081E090E00E94530F20E041
:1013100040E050E067E070E082E090E00E94530F10
:1013200021E040E050E060E070E083E090E00E9467
:10133000530F8091900390919103029734F10E9492
:10134000AA00809195038823C1F080916402909156
:1013500065020197909365028093640281E090E0BA
:101360002091970330919803232B11F080E090E0B7
:10137000909398038093970302C00E94060368EE3F
:1013800073E080E090E00E94CC0C809190039091FB
:10139000910397FFA7C00E94AA008091950388231C
:1013A000C1F080916402909165020196909365026C
:1013B0008093640281E090E020919703309198033C
:1013C000232B11F080E090E0909398038093970393
:1013D00099CE0E94160396CE0197AECD0E940603C9
:1013E00038CE0E94AA00809195038823C1F081E045
:1013F00090E02091970330919803232B11F080E027
:1014000090E0909398038093970380916402909169
:1014100065020196909365028093640202C00E9467
:10142000160368EE73E080E090E00E94CC0C1ECEC4
:1014300002970CF42ACFAECE809116039091170339
:1014400006978039910508F0FCCB0E94560DC0909C
:101450000001D0900101E0900201F0900301DC0155
:10146000CB018C199D09AE09BF09CD97A105B10526
:1014700008F4E7CB0E94560D6093040170930501B8
:101480008093060190930701DCCBFC01E15EFC4FE9
:101490008081918106978E30954008F071CD0E9431
:1014A000560DF701EE0FFF1FEE0FFF1FE45FFE4F1B
:1014B000C080D180E280F380DC01CB018C199D09D2
:1014C000AE09BF09C397A105B10508F459CD0E9423
:1014D000560D609308017093090180930A0190935F
:1014E0000B014ECDDF91CF911F910F91FF90EF90A7
:1014F000DF90CF90BF90AF909F908F900895CF9244
:10150000DF92EF92FF920F931F93CF93DF936C01C3
:101510007A018B01C0E0D0E0CE15DF0589F0D8015B
:101520006D918D01D601ED91FC910190F081E02D3E
:10153000C6010995892B11F47E0102C02196ECCFDA
:10154000C701DF91CF911F910F91FF90EF90DF9036
:10155000CF900895833081F028F4813099F0823063
:10156000A1F008958730A9F08830B9F08430D1F423
:10157000809180008F7D03C0809180008F77809361
:101580008000089584B58F7702C084B58F7D84BDB7
:1015900008958091B0008F7703C08091B0008F7D57
:1015A0008093B00008953FB7F8948091A303909181
:1015B000A403A091A503B091A60326B5A89B05C0DE
:1015C0002F3F19F00196A11DB11D3FBFBA2FA92FC2
:1015D000982F8827820F911DA11DB11DBC01CD013F
:1015E00042E0660F771F881F991F4A95D1F708952B
:1015F0008CEB93E00E941B0F21E0892B09F420E083
:10160000822F08951F920F920FB60F9211242F93DD
:101610003F934F935F936F937F938F939F93AF937A
:10162000BF93EF93FF938CEB93E00E943610FF91F2
:10163000EF91BF91AF919F918F917F916F915F914A
:101640004F913F912F910F900FBE0F901F901895C3
:101650001F920F920FB60F9211242F938F939F9387
:10166000EF93FF93E091CC03F091CD038081E09163
:10167000D203F091D30382FD12C090818091D503F3
:101680008F5F8F732091D603821751F0E091D503BD
:10169000F0E0E454FC4F958F8093D50301C0808126
:1016A000FF91EF919F918F912F910F900FBE0F900F
:1016B0001F901895CF93DF93282F30E0F901E4585D
:1016C000FF4F8491F901E057FF4FD491F901E255A2
:1016D000FF4FC491CC2391F081110E94AA0AEC2FF4
:1016E000F0E0EE0FFF1FEE58FF4FA591B491EC9183
:1016F000ED2381E090E021F480E002C080E090E002
:10170000DF91CF9108951F93CF93DF93282F30E07F
:10171000F901E458FF4F8491F901E057FF4FD4914C
:10172000F901E255FF4FC491CC23C9F0162F811166
:101730000E94AA0AEC2FF0E0EE0FFF1FEC55FF4FBE
:10174000A591B4918FB7F894111105C09C91ED2F1C
:10175000E095E92302C0EC91ED2BEC938FBFDF9174
:10176000CF911F910895CF93DF9390E0FC01E05754
:10177000FF4F2491FC01E255FF4F8491882361F1D2
:1017800090E0880F991FFC01E859FF4FC591D49153
:10179000FC01EC55FF4FA591B491611109C09FB7B1
:1017A000F8948881209582238883EC912E230BC0A6
:1017B000623061F49FB7F8943881822F809583233B
:1017C0008883EC912E2B2C939FBF06C08FB7F89483
:1017D000E8812E2B28838FBFDF91CF9108951F932F
:1017E000CF93DF93182FEB0161E00E94B30B20979A
:1017F00011F460E004C0CF3FD10539F461E0812FDE
:10180000DF91CF911F910C94830BE12FF0E0E4580E
:10181000FF4FE491E330F9F048F4E130B9F0E23001
:10182000A1F584B5806284BDC8BD34C0E730E9F05D
:10183000E83019F1E43049F58091800080628093AE
:101840008000D0938B00C0938A0024C084B5806848
:1018500084BDC7BD1FC080918000806880938000D8
:10186000D0938900C093880015C08091B000806833
:101870008093B000C093B3000DC08091B00080622F
:101880008093B000C093B40005C0C038D1050CF0FF
:10189000B5CFAFCFDF91CF911F9108958E3008F073
:1018A0008E508770806480937C0080917A00806481
:1018B00080937A0080917A0086FDFCCF8091780039
:1018C0002091790090E0922B08958F929F92AF9291
:1018D000BF92CF92DF92EF92FF920F931F93CF931D
:1018E000DF9300D0CDB7DEB700E010E04C01880CEC
:1018F000991CC401865B9C4F5C01F401EF54FB4FC3
:101900006F01061717079CF4F501E080F180F601DE
:10191000808169837A830E944E0C8E0D9F1DF50194
:10192000918380830F5F1F4F7A816981EACFF40131
:10193000E65BFC4F808191810E9422199B01072E5A
:10194000000C880B990B37FD09C00E94501A20E04B
:1019500030E040E05FE30E94AC1908C00E94501ADA
:1019600020E030E040E05FE30E94AB190E94181ACB
:10197000F401E65BFC4F718360830F900F90DF9161
:10198000CF911F910F91FF90EF90DF90CF90BF907C
:10199000AF909F908F9008958F929F92AF92BF9239
:1019A000CF92DF92EF92FF926B017C010E94D30AEB
:1019B0004B015C01C114D104E104F104F1F00E9477
:1019C000D30ADC01CB0188199909AA09BB09883E11
:1019D0009340A105B10570F321E0C21AD108E108D6
:1019E000F10888EE880E83E0981EA11CB11CC1147A
:1019F000D104E104F10419F7DDCFFF90EF90DF90FF
:101A0000CF90BF90AF909F908F900895AF92BF926C
:101A1000CF92DF92EF92FF920F931F93CF93DF93BA
:101A200080919B03811137C0CDECD2E007EB12E02F
:101A300088EEA82E83E0B82E69917991C5010E94A5
:101A400022196B01F801619171918F010D2C000C2D
:101A5000EE08FF08A701960185E00E944711C70123
:101A6000B6010E94501A2AE037ED43EA5FE30E9474
:101A7000DC1A0E94181A072E000C880B990B0E9482
:101A8000CC0C85E00E94C010F2E0C53EDF07A1F655
:101A900081E080939B03DF91CF911F910F91FF9085
:101AA000EF90DF90CF90BF90AF9008952FB7F8944C
:101AB00060919F037091A0038091A1039091A20374
:101AC0002FBF08951F920F920FB60F9211242F93DC
:101AD0003F938F939F93AF93BF9380919F03909178
:101AE000A003A091A103B091A20330919E0323E033
:101AF000230F2D3720F40196A11DB11D05C026E846
:101B0000230F0296A11DB11D20939E0380939F0376
:101B10009093A003A093A103B093A2038091A30389
:101B20009091A403A091A503B091A6030196A11DD5
:101B3000B11D8093A3039093A403A093A503B09336
:101B4000A603BF91AF919F918F913F912F910F90DD
:101B50000FBE0F901F9018952F923F924F925F9259
:101B60006F927F928F929F92AF92BF92CF92DF92AD
:101B7000EF92FF920F931F93CF93DF9300D0CDB7D7
:101B8000DEB78C0149832A83660F771FF801EA5A72
:101B9000FF4FE080F180EE0CFF1CF801CF01801BAD
:101BA000910B8E159F0514F41192F8CF8981F801DD
:101BB000E60FF71F81838A818083580184E5A80E90
:101BC000B11C60E0F50180810E94830BE00EF11EE4
:101BD0004801F2E58F0E911C380180E5680E711CFA
:101BE000C701801B910B1816190624F5F701C29046
:101BF0007F01F4013080F301208087E0482E512CD2
:101C0000D12CB601042C02C0759567950A94E2F7B1
:101C100061707727822D0E94830B61E0832D0E94E3
:101C2000830B60E0832D0E94830BF1E04F1A510873
:101C300040F7D6CF61E0F50180810F900F90DF91E2
:101C4000CF911F910F91FF90EF90DF90CF90BF90B9
:101C5000AF909F908F907F906F905F904F903F904C
:101C60002F900C94830B77FD10C0FC01EA5AFF4FB4
:101C7000208131816217730744F4442311F020E07E
:101C800001C021E04CE00C94AC0D0895AF92BF92DE
:101C9000CF92DF92EF92FF920F931F93CF93DF9338
:101CA00000D0CDB7DEB7C12CD12C5C01AA0CBB1C77
:101CB00085010F541B4FE0909C03F0909D03C616C6
:101CC000D70694F4F801808169837A830E944E0CD0
:101CD0008E0D9F1D90939D0380939C03FFEFCF1A61
:101CE000DF0A7A816981E7CFC7010E942219F501D5
:101CF000E65BFC4F80819181681B790B6B01072E9D
:101D0000000CEE08FF0877FD12C0C701B6010E9463
:101D1000501A20E030E040E05FE30E94AC190E94DE
:101D2000181A161617061806190694F013C0C701DC
:101D3000B6010E94501A20E030E040E05FE30E94CC
:101D4000AB190E94181A16161706180619066CF415
:101D5000CB011BC0C701B6010E94501A20E030E041
:101D600040E05FE30E94AC190AC0C701B6010E94BF
:101D7000501A20E030E040E05FE30E94AB190E947F
:101D8000181A88279927861B970B90939D03809399
:101D90009C030F900F90DF91CF911F910F91FF90B7
:101DA000EF90DF90CF90BF90AF900895CF93DF93E7
:101DB000EC0166E970E085E00E94EF0BBE01DD0FEB
:101DC000880B990B0E94CC0C60E085E0DF91CF91ED
:101DD0000C94830B68EC70E085E00E94EF0B68ECDC
:101DE00070E080E090E00E94CC0C60E085E00C9414
:101DF000830BFC01918D828D981761F0828DDF013C
:101E0000A80FB11D5D968C91928D9F5F9F73928FED
:101E100090E008958FEF9FEF0895FC01918D828DE2
:101E2000981731F0828DE80FF11D858D90E00895AF
:101E30008FEF9FEF0895FC01918D228D892F90E007
:101E4000805C9F4F821B91098F739927089580E0D2
:101E500090E0892B29F00E94F80A81110C9400006F
:101E600008950E94491B242F97FD1CC04091AF0488
:101E70005091B00484179507ACF46830710590F464
:101E8000FC0133E0EE0FFF1F3A95E1F7E75AFB4FF5
:101E9000E60FF71F208B41E0460FBC0189E594E077
:101EA0000C94AC0D0895CF93DF9397FD3BC0E09168
:101EB000AF04F091B0048E179F07A4F56830710548
:101EC00088F54830510570F5EC0133E0CC0FDD1F8B
:101ED0003A95E1F7E0E8F0E002C0F595E7954A951C
:101EE000E2F7DE01A60FB71FA75ABB4F222329F046
:101EF00050962C915097E22B05C0E09550962C916E
:101F00005097E2235096EC93C75ADB4FC60FD71F6A
:101F100041E0460F2889BC0189E594E0DF91CF912B
:101F20000C94AC0DDF91CF910895AF92BF92CF92F8
:101F3000DF92EF92FF920F931F93CF93DF9397FD62
:101F400026C02091AF043091B00482179307FCF4AF
:101F500068307105E0F46B018C01C0E0D0E0E42E44
:101F6000F12C87E0A82EB12CC5018C1B9D0B97018D
:101F700002C0359527958A95E2F72170A601BE012A
:101F8000C8010E94530F2196C830D10569F7DF912F
:101F9000CF911F910F91FF90EF90DF90CF90BF9066
:101FA000AF900895009769F0FC0101900020E9F7D7
:101FB0003197AF01481B590BBC018CEB93E00C949B
:101FC0007F0A80E090E008958F929F92AF92BF9237
:101FD0000F931F93CF93DF93CDB7DEB7A1970FB6C3
:101FE000F894DEBF0FBECDBF19A2423008F44AE01C
:101FF0008E010F5D1F4F842E912CA12CB12CA501B9
:1020000094010E943619E62FB901CA010150110945
:10201000EA3014F4E05D01C0E95CD801EC93232BB5
:10202000242B252B61F7C8010E94D20FA1960FB671
:10203000F894DEBF0FBECDBFDF91CF911F910F91FE
:10204000BF90AF909F908F90089597FD0EC0209104
:10205000AF043091B004821793073CF424E04AE0C7
:10206000BC0189E594E00C94AC0D0895FC01848DCD
:10207000DF01A80FB11DA35ABF4F2C91848D90E0B2
:1020800001968F739927848FA689B7892C93A0898D
:10209000B1898C9180648C93938D848D981306C044
:1020A0000288F389E02D80818F7D80830895EF92EF
:1020B000FF920F931F93CF93DF93EC0181E0888F02
:1020C0009B8D8C8D981305C0E889F989808185FDE9
:1020D00024C0F62E0B8D10E00F5F1F4F0F731127DA
:1020E000E02E8C8DE8120CC00FB607FCFACFE88901
:1020F000F989808185FFF5CFCE010E943610F1CF9E
:102100008B8DFE01E80FF11DE35AFF4FF0820B8F1C
:10211000EA89FB898081806207C0EE89FF8960833C
:10212000E889F98980818064808381E090E0DF9193
:10213000CF911F910F91FF90EF900895CF93DF9370
:10214000EC01888D8823C9F0EA89FB89808185FDAF
:1021500005C0A889B9898C9186FD0FC00FB607FC10
:10216000F5CF808185FFF2CFA889B9898C9185FF51
:10217000EDCFCE010E943610E7CFDF91CF910895C9
:1021800090918A02981324C0E2ECF0E0E4919FEF72
:1021900090938A02E130B9F098F0E230C9F490915E
:1021A00070009D7F9093700091E09093B0009091AB
:1021B000B100987F94609093B1001092B30008C072
:1021C00010926E0005C090916F009D7F90936F00FC
:1021D00060E00C94830B1F920F920FB60F921124A4
:1021E0002F933F934F935F936F937F938F939F931F
:1021F000AF93BF93EF93FF938091CE049091CF0460
:10220000A091D004B091D104892B8A2B8B2B51F152
:102210008091CD04E091CB04F091CC04908189278A
:1022200080838091CE049091CF04A091D004B0918E
:10223000D104181619061A061B06C4F48091CE04A0
:102240009091CF04A091D004B091D1040197A1093D
:10225000B1098093CE049093CF04A093D004B0939F
:10226000D10404C080918A020E94C010FF91EF91B6
:10227000BF91AF919F918F917F916F915F914F919E
:102280003F912F910F900FBE0F901F9018953F9286
:102290004F925F926F927F928F929F92AF92BF9276
:1022A000CF92DF92EF92FF920F931F93CF93DF9322
:1022B00000D000D0CDB7DEB790918A02981721F0F8
:1022C0009F3F09F036C204C0E2ECF0E0349081C0D8
:1022D00080938A02E2ECF0E0E491EF3F09F429C236
:1022E000E13031F1E23009F44BC0E11171C014BCAE
:1022F00015BC94B5926094BD95B5916095BDA82F1D
:10230000B0E0FD01E255FF4FE491F0E0EE0FFF1F5A
:10231000EC55FF4F059114911093C2040093C10432
:10232000FD01E057FF4FE491E093C004312C53C00E
:10233000109280001092810090918100986090939B
:10234000810090918100916090938100A82FB0E06E
:10235000FD01E255FF4FE491F0E0EE0FFF1FEC5559
:10236000FF4F059114911093BF040093BE04FD012B
:10237000E057FF4FE491E093BD04332433942BC026
:102380001092B0001092B1009091B00092609093C2
:10239000B0009091B10091609093B100A82FB0E08F
:1023A000FD01E255FF4FE491F0E0EE0FFF1FEC5509
:1023B000FF4F059114911093CC040093CB04FD01C1
:1023C000E057FF4FE491E093CD0402E0302E03C0CC
:1023D0003E2E37FCAEC129013A018B0161E00E941B
:1023E000B30B4801A12CB12C832D8D7F09F0BBC00C
:1023F00060E072E18AE790E0A50194010E9458191B
:1024000029833A834B835C8369017A0121E0C21AF4
:10241000D108E108F1088FEFC816D104E104F104F6
:1024200009F008F44CC060E472E48FE090E0A5018C
:1024300094010E94581969017A01E1E0CE1AD1088D
:10244000E108F108F2E03F1220C02FEFC216D104DC
:10245000E104F10409F008F46AC160E970ED83E079
:1024600090E0A50194010E94581969017A0181E068
:10247000C81AD108E108F108EFEFCE16D104E10443
:10248000F10409F0D0F583E067C0FFEFCF16D10467
:10249000E104F104B1F0A8F068E478EE81E090E0A6
:1024A000A50194010E94581969017A0181E0C81AB6
:1024B000D108E108F108332009F4DFC02FC181E021
:1024C00001C082E03320A1F047C089819A81AB81AD
:1024D000BC812AE0B595A795979587952A95D1F760
:1024E0006C017D0121E0C21AD108E108F10885E004
:1024F00095B5987F892B85BD6FC068E478EE81E043
:1025000090E0A50194010E94581969017A01F1E057
:10251000CF1AD108E108F1082FEFC216D104E10467
:10252000F10409F008F4A7C064E274EF80E090E0E1
:10253000A50194010E94581969017A01E1E0CE1ABF
:10254000D108E108F108FFEFCF16D104E104F1044E
:1025500011F008F0B4C085E09091B100987F892B0C
:102560008093B10039C060E072E18AE790E0A50194
:1025700094010E94581969017A0181E0C81AD108B2
:10258000E108F108C114D104E1E0EE06F10488F09D
:1025900068E478EE81E090E0A50194010E9458196A
:1025A00069017A01F1E0CF1AD108E108F10893E05E
:1025B00001C091E021E032120FC080918100887F3C
:1025C000892B80938100411451046104710449F402
:1025D0002FEF3FEFA9012DC0411451046104710494
:1025E00071F0D801AA0FBB1FA30192010E947719B5
:1025F00028EE33E040E050E00E94361903C02FEF90
:102600003FEFA90181E03816A1F0E2E03E1619F192
:1026100031108FC0C7BC2093C7043093C8044093C7
:10262000C9045093CA0480916E00826080936E004A
:1026300080C0D0928900C09288002093C304309358
:10264000C4044093C5045093C60480916F00826017
:1026500080936F006EC0C092B3002093CE0430937D
:10266000CF044093D0045093D104809170008260D5
:10267000809370005EC084E06FCFFFEFCF16D1046F
:10268000E104F104D1F0C8F062E17AE780E090E083
:10269000A50194010E94581969017A0181E0C81AC4
:1026A000D108E108F108EFEFCE16D104E104F104FE
:1026B00011F008F00ACF84E01BCF83E019CF62E16C
:1026C0007AE780E090E0A50194010E945819690121
:1026D0007A0181E0C81AD108E108F108EFEFCE16BF
:1026E000D104E104F104C1F0B8F089819A81AB8191
:1026F000BC814AE0B595A795979587954A95D1F7FE
:102700006C017D0121E0C21AD108E108F1083320F3
:1027100009F4EDCE87E020CF86E0D4CEFFEFCF16D0
:10272000D104E104F10409F050F684E0CBCE82E05C
:1027300013CF0F900F900F900F90DF91CF911F91BB
:102740000F91FF90EF90DF90CF90BF90AF909F9050
:102750008F907F906F905F904F903F900895CF93B0
:10276000DF9300D000D0CDB7DEB7789484B5826017
:1027700084BD84B5816084BD85B5826085BD85B525
:10278000816085BD80916E00816080936E001092A3
:10279000810080918100826080938100809181001E
:1027A00081608093810080918000816080938000AF
:1027B0008091B10084608093B1008091B00081600D
:1027C0008093B00080917A00846080937A00809139
:1027D0007A00826080937A0080917A008160809391
:1027E0007A0080917A00806880937A001092C1000C
:1027F00040E060E070E089E594E00E94330E40E044
:1028000061E070E089E594E00E94330E40E062E010
:1028100070E089E594E00E94330E40E063E070E0F0
:1028200089E594E00E94330E80E090E00E9425103C
:1028300081E090E00E94251082E090E00E94251047
:1028400083E090E00E94251061E085E00E94B30BD8
:1028500060E084E00E94B30B60E082E00E94B30B72
:1028600060E083E00E94B30B61E084E00E94830B90
:1028700061E082E00E94830B61E083E00E94830BB1
:102880008CE192E0909363038093620384E192E091
:1028900090936503809364038CE092E090936703C8
:1028A0008093660384E092E09093690380936803C9
:1028B0008CEF91E090936B0380936A0384EF91E037
:1028C00090936D0380936C038CEE91E090936F0373
:1028D00080936E0384EE91E0909371038093700374
:1028E0008CED91E0909373038093720384ED91E0FB
:1028F00090937503809374038CEC91E0909377032D
:10290000809376038EE792E0909379038093780327
:1029100084EC91E090937B0380937A038CEB91E0BD
:1029200090937D0380937C0384EB91E090937F03ED
:1029300080937E038CEA91E09093810380938003DF
:1029400084EA91E090938303809382038CE991E081
:10295000909385038093840384E991E090938703A7
:10296000809386038CE891E0909389038093880399
:1029700084E891E090938B0380938A038CE791E045
:1029800090938D0380938C0389E791E09093A80343
:102990008093A70386E791E09093AA038093A9030D
:1029A00083E791E09093AC038093AB0380E791E0E1
:1029B0009093AE038093AD038DE691E09093B003C6
:1029C0008093AF038AE691E09093B2038093B103C2
:1029D00087E691E09093B4038093B30384E691E09B
:1029E0009093B6038093B50381E691E09093B8038A
:1029F0008093B7038EE591E09093BA038093B90377
:102A000066E571E080E090E00E94B3006EE471E062
:102A100081E090E00E94B30068EE73E080E090E017
:102A20000E94CC0C6CE271E080E090E00E94650CAA
:102A30006CE271E081E090E00E94650C64E670E079
:102A400082E090E00E94650C0E94AD011FE0212E03
:102A5000312C0AE0E02EF12C84E6482E512C98EE21
:102A6000692E93E0792E80E090E00E9426035C01BD
:102A700081E090E00E9426036C0182E090E00E94D9
:102A800026038C0184E0A816B10421F094E0C91655
:102A9000D10411F40E94AD0104301105F1F48091CC
:102AA0008902A1E08A27809389028CE291E00E944A
:102AB000D60E64E670E080E090E00E94CC0C86E9DF
:102AC00090E00E94D60E64E670E080E090E00E9404
:102AD000CC0C8CE291E00E94D60E80919B0388235F
:102AE00009F404C10E94560D00915403109155033E
:102AF000209156033091570308511C4F2F4F3F4FE1
:102B0000061717072807390708F0A0C2809152035B
:102B100090915303049721F410925303109252039F
:102B20000E94560D6093540370935503809356038F
:102B30009093570380915203909153030196909381
:102B40005303809352038130910509F580919503D9
:102B5000811115C0E0916003F0916103EE0FFF1F3A
:102B6000EE59FC4F60817181E0918E03F0918F03EB
:102B7000EE0FFF1FEE59FC4F8081918165C280915D
:102B8000640290916502049709F05AC252C28230E1
:102B9000910519F46CE272E0A2C0039709F09DC0A0
:102BA00068E573E0CB010E944301E0915003F0918E
:102BB0005103CF01B7010E9422199B01DC01AA0F2A
:102BC000BB1FAD0149555C4FDA01BC91B983DA01F5
:102BD0001196BC91BA83CF01B2010E942219CB0198
:102BE000B7010E942219DC01AA0FBB1FAD01495594
:102BF0005C4FDA01BC91BC83DA011196BC91BB83B6
:102C0000CF01B3010E942219CB01B7010E94221902
:102C1000FC01EE0FFF1FE955FC4FA080B180C901F8
:102C2000B7010E942219FC01EE0FFF1FE955FC4F6E
:102C3000C080D18000E010E04501F50141915F01C5
:102C4000B80180E090E00E94950FD4014C91B8014A
:102C500083E090E00E94950F4601F60141916F01DB
:102C6000B80181E090E00E94950FD4014C91B80129
:102C700082E090E00E94950F0F5F1F4F0330110517
:102C8000D9F6AC80BB80C980DA8005E010E0450150
:102C9000F50141915F01B80180E090E00E94950F3D
:102CA000D4014C91B80183E090E00E94950F460159
:102CB000F60141916F01B80181E090E00E94950F0B
:102CC000D4014C91B80182E090E00E94950F0F5F13
:102CD0001F4F08301105D9F6B9C164E272E080E0F7
:102CE00090E00E94B30068E573E052C080919A03BF
:102CF000811153C0AA94AB2889F4F0928802E09223
:102D00008702E1E0E0939A03E093BB03109286020E
:102D1000E093990310929803109297038091960381
:102D2000CA94CD28E9F4811105C03092880220921E
:102D3000870206C08CE090E090938802809387021F
:102D400091E090939A031092BB0310928602109226
:102D5000990381E090E0909398038093970376C164
:102D6000882349F06EE772E080E090E00E94B300B3
:102D700066E772E00DC080918902882309F466C17C
:102D80006EE672E080E090E00E94B30066E672E0DA
:102D900081E090E00E94B30059C1809195038111B8
:102DA0007EC0A1E0AA16B10429F40E94EA0E0E9496
:102DB000160314C0B2E0AB16B10481F480918E0307
:102DC00090918F03181619062CF4019790938F0396
:102DD00080938E030E94AA000E946D02E1E0CE164D
:102DE000D10429F40E94EA0E0E94060314C0F2E006
:102DF000CF16D10481F4809160039091610318167D
:102E000019062CF4019790936103809360030E944C
:102E1000AA000E946D0201301105B1F50E94AA00BE
:102E200081E0809394031092930310929203809117
:102E3000970390919803009789F410929103109250
:102E40009003E0918E03F0918F03EE0FFF1FEE5978
:102E5000FC4F6081718180E090E00EC0109391037F
:102E600000939003E0916003F0916103EE0FFF1F68
:102E7000EE59FC4F608171810E94E50064EF71E0C2
:102E800080E090E00E94CC0CA114B10441F4C11484
:102E9000D10429F40115110511F40E946804209150
:102EA0008E0330918F03809195032431310561F4B5
:102EB00020916003309161032431310589F59091AF
:102EC000960391112DC00EC02A30310549F520918D
:102ED0006003309161032A30310511F5909196031A
:102EE0009923F1F081111CC068EE73E080E090E05E
:102EF0000E94CC0C6CE372E080E090E00E94B30092
:102F000064E372E081E090E00E94B3006CED75E054
:102F100080E090E00E94CC0C91E09093950396C0E5
:102F2000882309F493C0A1E0AA16B104B9F48091F2
:102F30006402909165020196909365028093640209
:102F400081E090E02091970330919803232B11F0BA
:102F500080E090E09093980380939703B1E0CB16C4
:102F6000D104B9F480916402909165020197909325
:102F700065028093640281E090E020919703309194
:102F80009803232B11F080E090E0909398038093B6
:102F900097030130110531F50E94AA00E1E0E093AA
:102FA000940310929303109292038091970390914F
:102FB000980368E573E0892B41F4CB010E9443013B
:102FC000109291031092900307C0CB010E9443011D
:102FD000109391030093900364EF71E080E090E020
:102FE0000E94CC0CAB2831F4CD2821F4012B11F434
:102FF0000E9468048091640290916502823091057C
:1030000021F464E472E0CB011FC08330910529F400
:1030100064E572E08CE492E017C08130910529F4F8
:103020006CE472E084E592E00FC004973CF00E94EB
:10303000060D68E573E08CE592E006C00E94060D7F
:103040006CE572E088E593E00E9443010E94270F3F
:103050000ACDEF92FF920F931F93CF93DF931092BD
:10306000BF031092BE0388EE93E0A0E0B0E080932F
:10307000C0039093C103A093C203B093C3038BEE2C
:1030800092E09093BD038093BC0385EC90E0909315
:10309000C9038093C80384EC90E09093CB038093A2
:1030A000CA0380EC90E09093CD038093CC0381EC35
:1030B00090E09093CF038093CE0382EC90E09093C6
:1030C000D1038093D00386EC90E09093D303809358
:1030D000D2031092D5031092D6031092D703109208
:1030E000D80384E090E09093B8048093B70422E082
:1030F00030E03093BA042093B90423E030E03093F9
:10310000BC042093BB042EE030E03093B204209343
:10311000B1042FE030E03093B4042093B30420E1F5
:1031200030E03093B6042093B504CCE0D0E0D093E7
:10313000AA04C093A9042AE030E03093AC042093A1
:10314000AB042BE030E03093AE042093AD049093B9
:10315000B0048093AF0461E08CE00E94B30B61E0A7
:103160008091AB040E94B30B61E08091AD040E949A
:10317000B30B61E08091AD040E94830BD093AA044D
:10318000C093A904E9E6F4E0119284E0E93AF80773
:10319000D9F789E5E82E84E0F82EC0E0D0E08091F0
:1031A000AF049091B004C817D9070CF044C020E0D8
:1031B0004FE0BE0189E594E00E94AC0DD7FD0EC042
:1031C0008091AF049091B004C817D9073CF427E070
:1031D0004BE0BE0189E594E00E94AC0D20E049E09F
:1031E000BE0189E594E00E94AC0DD7FD19C0809125
:1031F000AF049091B004C817D90794F401E010E02F
:10320000F701E00FF11F178620E0402FBE0189E58E
:1032100094E00E94AC0D0F5F1F4F0930110581F73C
:1032200041E0BE0189E594E00E94330E219688E0DA
:10323000E80EF11CB4CFDF91CF911F910F91FF9059
:10324000EF90089597FB072E16F4009407D077FDB2
:1032500009D00E94821907FC05D03EF49095819513
:103260009F4F0895709561957F4F0895A1E21A2EA2
:10327000AA1BBB1BFD010DC0AA1FBB1FEE1FFF1F1A
:10328000A217B307E407F50720F0A21BB30BE40B6A
:10329000F50B661F771F881F991F1A9469F76095B1
:1032A0007095809590959B01AC01BD01CF0108956B
:1032B000052E97FB1EF400940E946F1957FD07D04E
:1032C0000E94361907FC03D04EF40C946F195095E8
:1032D0004095309521953F4F4F4F5F4F0895909502
:1032E0008095709561957F4F8F4F9F4F08950E94F5
:1032F0009C19A59F900DB49F900DA49F800D911DCA
:1033000011240895AA1BBB1B51E107C0AA1FBB1FB4
:10331000A617B70710F0A61BB70B881F991F5A9561
:10332000A9F780959095BC01CD010895EE0FFF1F80
:103330000590F491E02D0994A29FB001B39FC001C4
:10334000A39F700D811D1124911DB29F700D811DD1
:103350001124911D08955058BB27AA270E94C31914
:103360000C94A21A0E94941A38F00E949B1A20F022
:1033700039F49F3F19F426F40C94911A0EF4E09559
:10338000E7FB0C948B1AE92F0E94B31A58F3BA1773
:10339000620773078407950720F079F4A6F50C946B
:1033A000D51A0EF4E0950B2EBA2FA02D0B01B90102
:1033B00090010C01CA01A0011124FF27591B99F0AB
:1033C000593F50F4503E68F11A16F040A22F232FB7
:1033D000342F4427585FF3CF469537952795A79507
:1033E000F0405395C9F77EF41F16BA0B620B730BAE
:1033F000840BBAF09150A1F0FF0FBB1F661F771F1F
:10340000881FC2F70EC0BA0F621F731F841F48F4D3
:10341000879577956795B795F7959E3F08F0B0CF5C
:103420009395880F08F09927EE0F97958795089543
:103430000E941F1A6894B1110C94D61A08950E9424
:10344000BB1A88F09F5798F0B92F9927B751B0F061
:10345000E1F0660F771F881F991F1AF0BA95C9F718
:1034600014C0B13091F00E94D51AB1E008950C94C7
:10347000D51A672F782F8827B85F39F0B93FCCF37A
:10348000869577956795B395D9F73EF49095809595
:10349000709561957F4F8F4F9F4F0895E89409C0B5
:1034A00097FB3EF490958095709561957F4F8F4F77
:1034B0009F4F9923A9F0F92F96E9BB279395F6958D
:1034C000879577956795B795F111F8CFFAF4BB0F0B
:1034D00011F460FF1BC06F5F7F4F8F4F9F4F16C06F
:1034E000882311F096E911C0772321F09EE8872FF9
:1034F000762F05C0662371F096E8862F70E060E0B5
:103500002AF09A95660F771F881FDAF7880F96952D
:10351000879597F9089597F99F6780E870E060E0D4
:1035200008959FEF80EC089500240A94161617065C
:1035300018060906089500240A94121613061406A4
:1035400005060895092E0394000C11F4882352F007
:10355000BB0F40F4BF2B11F460FF04C06F5F7F4FBF
:103560008F4F9F4F089557FD9058440F551F59F0A6
:103570005F3F71F04795880F97FB991F61F09F3F60
:1035800079F087950895121613061406551FF2CF89
:103590004695F1DF08C0161617061806991FF1CFD9
:1035A00086957105610508940895E894BB27662700
:1035B0007727CB0197F908950E94EF1A0C94A21A6D
:1035C0000E94941A38F00E949B1A20F0952311F063
:1035D0000C948B1A0C94911A11240C94D61A0E94F4
:1035E000B31A70F3959FC1F3950F50E0551F629F7A
:1035F000F001729FBB27F00DB11D639FAA27F00D4C
:10360000B11DAA1F649F6627B00DA11D661F829F72
:103610002227B00DA11D621F739FB00DA11D621F57
:10362000839FA00D611D221F749F3327A00D611D74
:10363000231F849F600D211D822F762F6A2F112456
:103640009F5750409AF0F1F088234AF0EE0FFF1F89
:10365000BB1F661F771F881F91505040A9F79E3FE0
:10366000510580F00C948B1A0C94D61A5F3FE4F34A
:10367000983ED4F3869577956795B795F795E79536
:103680009F5FC1F7FE2B880F911D9695879597F93F
:10369000089581E090E0F8940C944E1BF894FFCFCD
:1036A000FFFFFFFFFFFFFFFFFFFFFFFFFFFFFFFF2A
:1036B000FFFFFFFF080E080FE040404088C8E8A861
:1036C000B898000F010101FFFFFFFFFFFFFFFFFFA1
:1036D000FFFFFFFFFFFFFFFFFFFFFFFFFFFFFF01F8
:1036E0000101010101E0A0E08E8A0A0E000100E064
:1036F000A0AE0A0E020EE0A0E08E84040E00745408
:103700007C7C547C40407C7C545C74545C70107CA9
:1037100054547C5C5474247C047C447C00E226E297
:1037200082E7000000E725E585E700000047C54780
:1037300041E700000047C54745E700000047C14199
:1037400041E100000047C44745E700000047C44787
:1037500041E700000045C54741E100000047C1477F
:1037600041E700000047C14744E700000047C54566
:1037700045E7000000E7A5A7A1E7000000E7A5A72F
:10378000A5E7000000E7A1A1A1E1000000E7A4A7D0
:10379000A5E7000000E7A4A7A1E7000000E5A5A7B2
:1037A000A1E1000000E7A1A7A1E7000000E7A1A7B1
:1037B000A4E7000000E2A6A2A2E7000000E7A5A59A
:1037C000A5E7000000E688EC828E000000EC4A4C81
:1037D0004A4C0000A8EE00E7E482EE0000CEA8AC60
:1037E000A8CE00AE00382424242438000018187E07
:1037F0007E181800000000E7E70000003C42A581A9
:10380000A599423C0200CE88EC08CEA0A0C07087EB
:103810006517E404E4800000E7A2E282820000422F
:10382000C64242E70000010A0001FF270527050004
:103830000027050000700327052006000010030084
:103840000008000800080008000800080004000440
:10385000000400040002000B020B020B020B029F8B
:1038600001D20100000B020000D2010B0208000887
:1038700000080003000300040040000600200008C8
:103880000001002C0105000000000057107F0A1BFA
:103890000FF90E0D0F9E1003000200040053656E19
:1038A000736F72206E657420002061742074696DDE
:0638B0006520000D0A0076
:00000001FF
